:020000040800F2
:100000001807002065020008D9110008D111000866
:10001000D5110008110400088D130008000000002D
:10002000000000000000000000000000E1110008D6
:100030001504000800000000DD110008E5110008AB
:100040007F0200087F0200087F0200087F0200088C
:100050007F0200087F0200087F0200087F0200087C
:100060007F0200087F0200087F0200087F0200086C
:100070007F0200087F0200087F0200087F0200085C
:100080007F0200087F0200087F0200087F0200084C
:100090007F0200087F0200087F0200087F0200083C
:1000A0007F0200087F0200087F0200087F0200082C
:1000B0007F0200087F0200087F0200087F0200081C
:1000C0007F0200087F0200087F0200087F0200080C
:1000D0007F0200087F0200087F0200087F020008FC
:1000E0007F0200087F0200087F0200087F020008EC
:1000F0007F0200087F0200087F0200087F020008DC
:100100007F0200087F0200087F0200087F020008CB
:100110007F0200087F0200087F0200087F020008BB
:100120007F0200087F0200087F0200087F020008AB
:100130007F02000800000000000000007F020008AD
:100140007F0200087F0200087F0200087F0200088B
:100150007F0200087F0200087F0200087F0200087B
:100160007F0200087F0200087F0200087F0200086B
:100170007F0200087F0200087F02000800000000E4
:10018000000000007F0200080000000000000000E6
:100190007F02000800000000000000007F0200084D
:1001A0000000000000000000000000007F020008C6
:1001B0007F0200087F0200087F0200087F0200081B
:1001C0007F02000800F002F800F03CF80AA090E876
:1001D000000C82448344AAF10107DA4501D100F002
:1001E00031F8AFF2090EBAE80F0013F0010F18BF93
:1001F000FB1A43F00103184770130000901300002E
:10020000103A24BF78C878C1FAD8520724BF30C842
:1002100030C144BF04680C60704700000023002414
:1002200000250026103A28BF78C1FBD8520728BF06
:1002300030C148BF0B6070471FB501F078F91FBD92
:1002400010B510BD00F0A9F81146FFF7F5FF01F059
:100250009FF800F0C7F803B4FFF7F2FF03BC00F00B
:10026000CFF800000948804709480047FEE7FEE74D
:10027000FEE7FEE7FEE7FEE7FEE7FEE7FEE7FEE756
:1002800004480549054A064B7047000095120008CE
:10029000C5010008180100201807002018030020DD
:1002A0001803002053EA020C00F069802DE9F04B9E
:1002B0004FF00006002B1FBFB3FA83F503FA05F4D5
:1002C00024FA05F65E4012BF1643B2FA82F502FA2E
:1002D00005F4C5F120051EBF22FA05FC44EA0C0412
:1002E000203556EA044C4FEA144418BF641C4FF002
:1002F00000084FF00009904271EB030C39D300293C
:1003000019BFB1FA81F701FA07F6B0FA80F700FADF
:1003100007F6C7F120071EBF20FA07FC46EA0C06C5
:100320002037B6FBF4FCA7EB0507103F07F01F0BC7
:10033000CBF120062CFA06F60CFA0BFB44BFB346B1
:100340000026202FA4BF5E464FF0000B5BEA060C90
:1003500008BF4FF0010B19EB0B0948EB0608ABFB8C
:10036000027C06FB02CC0BFB03CCC01B71EB0C0127
:10037000C1E70B46024641464846BDE8F08B13B53F
:10038000084318BF4FF0FF300146AFF30080BDE8CF
:100390001C407047704770477047754600F02CF856
:1003A000AE4605006946534620F00700854618B062
:1003B00020B5FFF765FFBDE820404FF000064FF085
:1003C00000074FF000084FF0000BAC46ACE8C00946
:1003D000ACE8C009ACE8C009ACE8C00921F00701ED
:1003E0008D46704710B50446AFF300802046BDE847
:1003F0001040FFF730BF0000004870471000002099
:1004000001491820ABBEFEE726000200704700003D
:10041000FEE70000704700002DE9F041044600F0BF
:10042000ABFA002C4ED00546022084F8350000209F
:10043000216884F83400086820F00100086008682A
:10044000C00708D000F098FA401B05286CD8216836
:100450000868C007F6D1086848F23F02CFF21002E0
:10046000D4E90135024004F10C0E9EE8C1511A4353
:100470002A4310433043384340EA0800626A40EAA6
:100480000C00042A40EA0E0320D1D4E90A5E206B56
:100490004EEA0302104308604869BEF1000F20F0E5
:1004A000030040EA050040F0040C15D0B8F5005FE9
:1004B00042D0B8F1000F51D1022D52D0012D47D0BA
:1004C00055B94EE00120BDE8F08100BF0B604869DE
:1004D00020F0070040EA020C6FF00F004AF6AB2252
:1004E00050FA81F0CAF6AA22A0FB02231A0941F2AF
:1004F0006053C0F600039A5C40F2FF335F284FF070
:100500003F00C1F814C021EA030100FA02F088BFDD
:100510000431C4E9161288600023012200206365BB
:1005200084F83520BDE8F081032220230320636591
:1005300084F83520BDE8F081032DCDD80122402379
:100540000120DFE805F0030E030500BFE7E700BF69
:10055000AEF1C070B0FA80F0400904E0032D04D37E
:10056000BAD1CEF300600028B6D00122402301208A
:10057000636584F83520BDE8F08100002DE9F04F77
:1005800081B092460D46044600F0F6F994F8351015
:10059000022925D1814620680068C0052AD4D4E903
:1005A00016801021002D08BF2021D8F8002001FA64
:1005B00000FB12EA0B0F009524D0616D00291CBFCF
:1005C000616D5FEAC17169D10099002958D010218D
:1005D00001FA00F0C8F80800002001B0BDE8F08F73
:1005E00080206065002084F83400012001B0BDE85F
:1005F000F08F00BF4FF480706065012001B0BDE84E
:10060000F08F00BF0AF101074FF0080C0125042606
:1006100003E000BF11EA0B0FCFD1616DC907CCD148
:100620006FB1BAF1000F69D000F0A6F9A0EB090094
:10063000504563D8E06D4FF0080C01250426D8F82A
:1006400000100CFA00F20A4205D0636D43F001037A
:100650006365C8F8082005FA00F20A4205D0636D08
:1006600043F002036365C8F8082006FA00F20A4264
:10067000D0D0636D43F004036365C8F80820C9E770
:10068000302101FA00F0C8F80800012084F8350094
:10069000002084F8340001B0BDE8F08FA76D00F0B1
:1006A0006BF994F83510022934D106462068216C84
:1006B000026822F016020260426922F08002426162
:1006C00009B9A16C19B1016821F008010160016844
:1006D00021F0010101600068C00708D000F04CF96A
:1006E000801B05281AD820680068C007F6D1E06D85
:1006F0003F2101FA00F0B860012012E0202060657F
:10070000012084F83500002084F83400032001B073
:10071000BDE8F08F8020606505E000BF20206065A7
:10072000032084F83500E06D302101FA00F0C8F8AC
:1007300008000120002184F8350084F8341001B04D
:10074000BDE8F08F10B5844690F8340001282CD015
:1007500001208CF834009CF83500012822D10220B9
:100760008CF835000020CCF85400DCF800E0DCF810
:1007700008C0DEF80040BCF1400F24F48024CEF81D
:100780000040CEF804300B4604BF13460A46CEF8AC
:100790000830CEF80C20DEF8001041F00101CEF850
:1007A000001010BD00208CF83400022010BD0000A5
:1007B0002DE9F04F82B000F13E4241F6000502F112
:1007C000FF77C4F2020507224FEAB726A84208BF06
:1007D0000622062E38BF4FEAB7224FF0010A002446
:1007E00000274FF00008009208E000BF023708F130
:1007F0000108202F04F1040400F0B4800E680AFA06
:1008000008F916EA090FF1D0D1F804A00AF0030B99
:10081000ABF10106012E17D80322866802FA07FE03
:10082000CA6826EA0E06BA40324382604268CAF3BA
:10083000001522EA090205FA08F54FEA480C6FEAAA
:100840000E062A4342600BE00322BA40D643BBF1B6
:10085000030FBC4604D1BC464FF0030B22E000BF9F
:10086000C2688D68324005FA0CF52A43BBF1020FCD
:10087000C26017D16FF0030202EA5802024404F08A
:100880001C030F25D2F820E005FA03FA0D692EEAC1
:100890000A0E05FA03F343EA0E031362D1F804A02B
:1008A0000AF0030B02680BFA0CF332401A431AF4F5
:1008B000403F4FF0010A026098D0002243F6440303
:1008C0000192C4F202031A6843F6004E42F48042D9
:1008D0001A601A68C4F2010E02F480420192019A71
:1008E00028F003024FF6084C7244CFF6FF7C52F812
:1008F0000C3004F00C060F25B540AB43009D05FA03
:1009000006F6334342F80C30DEF808204B6842EA22
:10091000090643F60C4CDD0258BF22EA0906CEF860
:100920000860C4F2010CDCF800209D0242EA0906CE
:1009300058BF22EA0906CCF80060DEF804209D03C7
:1009400042EA090658BF22EA0906CEF80460DEF83A
:100950000020DB0342EA090658BF22EA0906CEF866
:10096000006043E702B0BDE8F08F0000002A08BF36
:10097000090481617047000040F21410C2F20000C7
:100980000068704740F2000040F21411C2F200000B
:10099000C2F2000100780A68104408607047000045
:1009A00080B543F60040C4F20200016841F40071D2
:1009B0000160016841F480610160016841F4807167
:1009C0000160032000F076F8002000F005F800F048
:1009D00027F8002080BD000070B540F20006C2F28A
:1009E000000640F208013278C2F200014FF47A7337
:1009F0000968B3FBF2F20446B1FBF2F1084600F0DD
:100A00006BFB0F2C4FF0010508D838B94FF0FF30C1
:100A100021460022002500F021F87460284670BDB0
:100A200082B0002043F640010190C4F202014A68FE
:100A300042F480424A604A6802F480420192019A7C
:100A40000090086840F080500860086800F080500E
:100A500000900098072002B000F02CB810B54EF6B8
:100A60000C5CCEF2000CDCF80030C3F3022E8EF0EA
:100A70000704042C28BF0424BEF103034FF0FF3EFB
:100A80000EFA04F438BF0023A14399400EFA03F391
:100A90009A43114300F00F02043A624409010C32F8
:100AA00000F16043B0F1FF3FC8BF03F5644211702D
:100AB00010BD00004EF60C51CEF200010A684FF650
:100AC000FF031A4060F30A2242F0806040F0FD709C
:100AD000086070472DE9F041002800F08B8043F654
:100AE0000808C4F202080446D8F8F8030D4600F0DE
:100AF0000F00884207D288F8F853D8F8F80300F0BE
:100B00000F00A84276D12068810717D5410705D587
:100B1000D8F8001041F4E051C8F80010010705D5DD
:100B2000D8F8001041F46041C8F80010D8F800105F
:100B3000A26821F0F0011143C8F80010C0073FD1AE
:100B4000D8F8F80300F00F00A84207D988F8F85346
:100B5000D8F8F80300F00F00A8424BD120684107F5
:100B600007D5D8F80010E26821F4E0511143C8F825
:100B70000010000708D5D8F80000216920F4604073
:100B800040EAC100C8F8000000F07CF8D8F8001076
:100B900041F24852C1F30311C0F60002515C40F229
:100BA000080220FA01F140F20400C2F200000068DD
:100BB000C2F200021160FFF70FFF0020BDE8F081D4
:100BC0006068811E022907D258F8081C89015CBFA1
:100BD0000120BDE8F08111E0012807D158F8081C78
:100BE00089035CBF0120BDE8F08107E058F8081CCC
:100BF000890703D40120BDE8F08100BFD8F80010B8
:100C000021F003010843C8F80000FFF7B5FE0646CF
:100C100041F28837D8F80000616800F00C00B0EBB2
:100C2000810F8DD0FFF7A8FE801BB842F2D90320B8
:100C3000BDE8F08140F2080043F60801C2F200006E
:100C4000C4F202010068096841F25852C1F38221DE
:100C5000C0F60002515CC8407047000040F2080036
:100C600043F60801C2F20000C4F2020100680968FC
:100C700041F25852C1F34231C0F60002515CC84003
:100C80007047000010B543F60404C4F20204606823
:100C9000C0F3810142F20040C0F2F400DFE801F04D
:100CA0004402081841F20020C0F27A0010BD00BFD3
:100CB000216801F03F02216823684902C3F38811CB
:100CC00016D4A1FB00010023FFF7ECFA17E000BFE8
:100CD000216801F03F02216823684902C3F38811AB
:100CE00016D4A1FB00010023FFF7DCFA17E000BFD8
:100CF00041F20020C0F27A004843B0FBF2F02168D4
:100D00000222C1F3014102EB4101B0FBF1F010BD41
:100D100041F20020C0F27A004843B0FBF2F02168B3
:100D2000C1F30271B0FBF1F010BD00002DE9F041FC
:100D300082B0002800F096800446007843F6000652
:100D4000C007C4F202062BD0B06800F00C000428E3
:100D500020D0B06800F00C00082802D17068400272
:100D600018D4B06800F00C000C2802D17068400262
:100D700010D46068B0F5803F07D0B0F5A02F40F0E8
:100D80003B81306840F480203060306840F480302F
:100D900030603BE13068800302D56068002861D094
:100DA0002078800722D5B06810F00C0F11D0B06801
:100DB00000F00C00082802D17068400209D5B06824
:100DC00000F00C000C2840F09F807068400200F199
:100DD0009B803068800702D5E068012842D13068E6
:100DE000216920F0F80040EAC10030602078000757
:100DF0003CD42078400751D4A5698DB3B06800F089
:100E00000C00082840F0A880012D2BD07068E16903
:100E100000F480028A4225D1216A00F03F028A4212
:100E200020D147F6C071626A0140B1EB821F19D12F
:100E3000A26A0023CFF6FF7303EBC23200F4403105
:100E40006FF30F0291420DD1E16A00F07062B2EBD4
:100E5000016F07D1216B00F0E040B0EB017F01D1C1
:100E6000002035E1012002B0BDE8F0816069002872
:100E700040F20000C4F247205ED00121C0F8801E7D
:100E8000FFF77AFD054600BF706F8007B1D4FFF70A
:100E900073FD401B0228F7D9C5E000BF306C10F08D
:100EA00080580AD100200190306C40F080503064AE
:100EB000306C00F080500190019847F20007C4F2B6
:100EC00000073868C00511D4386840F48070386075
:100ED000FFF752FD054600BF3868C00506D4FFF78E
:100EE0004BFD401B0228F7D99DE000BFA0680128F8
:100EF00005D0052852D1306F40F004003067306FC4
:100F000040F00100306753E0E068002860D0002026
:100F1000C4F2472001210160FFF72EFD054600BF06
:100F2000306880073FF55BAFFFF726FD401B0228C6
:100F30004FF00300F4D9CBE00021C0F8801EFFF78A
:100F40001BFD0546706F80077FF553AFFFF714FD5B
:100F5000401B0228F6D966E00027C4F2472700208C
:100F60003866FFF709FD022D05460BD13068800178
:100F70005ED5FFF701FD401B02284FF00300F5D9B5
:100F8000A6E000BF306880017FF56AAFFFF7F4FC90
:100F9000401B02284FF00300F4D999E0316F00287C
:100FA00021F001013167316F21F00401316765D013
:100FB000FFF7E2FC054641F2883700BF306F80073B
:100FC0006ED4FFF7D9FC401BB842F7D92BE000BF25
:100FD0000020C4F2472000210160FFF7CDFC054648
:100FE000306880077FF502AFFFF7C6FC401B022880
:100FF0004FF00300F4D96BE03168002821F4803110
:101000003160316821F48021316053D0FFF7B4FCA6
:10101000054600BF306880033FF5C2AEFFF7ACFC69
:10102000401B6428F6D9032002B0BDE8F08100BF60
:1010300004F11C052FCD246B08430021CFF6FF716E
:1010400040EA821001EBC3316FF30F0140EA056003
:10105000084340EA0470706001203866FFF78CFC9A
:10106000044600BF306880013FF5FAAEFFF784FC0C
:10107000001B02284FF00300F4D929E0FFF77CFCA5
:10108000054641F2883700BF306F800708D5FFF76B
:1010900073FC401BB8424FF00300F5D918E000BFC5
:1010A000B8F1000F7FF4A8AE306C20F080503064AF
:1010B000A2E600BFFFF760FC0546306880037FF5BD
:1010C0006FAEFFF759FC401B64284FF00300F4D9C2
:1010D00002B0BDE8F0810000411E0020B0EB116FAE
:1010E0001CBF012070474EF21002CEF20002516088
:1010F0004EF62351CEF20001F0230B7007219060D1
:1011000011607047002804BF0120704710B50446E5
:1011100090F83D0028B9002084F83C00204600F0FB
:1011200021F8242084F83D002068C16821F4005192
:10113000C160204600F0B8F82068016921F49041B0
:101140000161416921F02A014161C16841F4005106
:10115000C16000202021206484F83D1084F83E10F6
:1011600010BD000080B586B0016844F20040C4F2B2
:101170000000814202D006B080BD00BF002143F6CE
:1011800030020191C4F20202136900F5DE3043F42B
:1011900000331361136903F400330193019B019140
:1011A000136843F001031360126802F00102019218
:1011B000019A0C2201920222CDE90221032104911D
:1011C0000721059101A9FFF7F3FA06B080BD0000E1
:1011D000FEE70000FEE70000FEE7000070470000A9
:1011E00070470000FFF7CEBBB0B594B0002443F6C3
:1011F00040000C94CDE90A44CDE908440694CDE9B9
:101200000444CDE902440194C4F2020001680122C1
:1012100041F0805101600068022500F0805001908B
:10122000019847F200000194C4F20000016862F3E3
:101230008F310160006800F4404001900198102057
:101240000B900F904FF4A87010900420CDE9110579
:1012500007A807950A92CDE90D541395FFF766FD8F
:1012600020B1EFF3108072B6FEE700BF0F20CDE98A
:1012700002054FF48050CDE9050402A80221049430
:10128000FFF728FC20B1EFF3108072B6FEE700BF35
:1012900014B0B0BD4EF68850CEF20000016841F4A3
:1012A000700101607047000010B504460068D4E981
:1012B00002C22369016921F440511143016162694D
:1012C00043EA0C01E3691143C268194349F20C6314
:1012D0009A431143C1604169A26921F4407141F20E
:1012E0000043114340F48062C4F201039A42416119
:1012F00002D1FFF7B3FC01E0FFF79CFCE1696368F2
:101300001922B1F5004FA0FB02011FD15A00DB0FDB
:10131000FEF7C8FF48F21F51C5F2EB11A0FB0123F5
:101320005A096FF0630302FB0300322303EBC00092
:10133000A0FB01014FF4F87000EA111000EB02105D
:10134000C1F3421108442168886010BD9A009B0FC8
:10135000FEF7A8FF48F21F51C5F2EB11A0FB0123D5
:101360005A096FF0630302FB0300322303EB001002
:10137000A0FB0101F02000EA511000EB0210C1F3C4
:10138000431108442168886010BD0000FEE700009A
:1013900086B040F20008C4F20208FFF701FBFFF735
:1013A00023FF002643F63007CDE904660096C4F219
:1013B00002073868202140F00400386038680022B5
:1013C00000F004000090009800963868202440F057
:1013D00080003860386800F0800000900098009627
:1013E000386840F001003860386800F00100009073
:1013F00000980096386840F002003860386800F0C5
:101400000200009000984046FFF7B0FA4FF40050F9
:1014100001904FF40410CDE9020640F6000001AD42
:10142000C4F202002946FFF7C3F90120CDE9020604
:101430004046294601940496FFF7BAF901963868A8
:1014400046F2104140F4800038603868C4F202016E
:1014500000F480000190019840F27000C2F2000098
:101460008022C0E90016C0E9022604210322C0E957
:101470000466C0E90666C0E90861C0E90A26066399
:10148000FEF7CAFF20B1EFF3108072B6FEE700BF8F
:1014900040F2D000A8F5DE31C2F200000C234FF478
:1014A000E13280E84600C0E90366C0E90536C6615E
:1014B000FFF728FE20B1EFF3108072B6FEE700BF01
:1014C00040F20C08142440F27005C2F20008C4F285
:1014D0000204C2F2000508F1010700BF2846414698
:1014E00022460123FFF72EF9284600214FF0FF3254
:1014F000FFF744F8FFF740FA00F57A76FFF73CFA79
:101500008642FBD22846394622460123FFF71AF9C4
:10151000284600214FF0FF32FFF730F8FFF72CFA92
:1015200000F57A76FFF728FA8642FBD2D6E7F1EE8D
:10153000100A4FF6FF71C0F2C03120EA010040F0FE
:101540004070E1EE100A704700000000000000004B
:101550000102030406070809000000000102030459
:10156000000610160006101688150008000000205E
:10157000100000000002000898150008100000206C
:10158000080700001C020008010000001000000015
:081590000024F40000FF00003C
:04000005080001C529
:00000001FF
