:020000040800F2
:100000001807002065020008FD130008F51300081A
:10001000F9130008110400089D18000800000000F2
:1000200000000000000000000000000005140008AF
:100030002104000800000000011400080914000851
:100040007F0200087F0200087F0200087F0200088C
:100050007F0200087F0200087F0200087F0200087C
:100060007F0200087F0200087F0200087F0200086C
:100070007F0200087F0200087F0200087F0200085C
:10008000150400087F0200087F0200087F020008B4
:100090007F0200087F0200087F0200087F0200083C
:1000A0007F0200087F0200087F0200087F0200082C
:1000B0007F0200087F0200087F0200087F0200081C
:1000C0007F0200087F0200087F0200087F0200080C
:1000D0007F0200087F0200087F0200087F020008FC
:1000E0007F0200087F0200087F0200087F020008EC
:1000F0007F0200087F0200087F0200087F020008DC
:100100007F0200087F0200087F0200087F020008CB
:100110007F0200087F0200087F0200087F020008BB
:100120007F0200087F0200087F0200087F020008AB
:100130007F02000800000000000000007F020008AD
:100140007F0200087F0200087F0200087F0200088B
:100150007F0200087F0200087F0200087F0200087B
:100160007F0200087F0200087F0200087F0200086B
:100170007F0200087F0200087F02000800000000E4
:10018000000000007F0200080000000000000000E6
:100190007F02000800000000000000007F0200084D
:1001A0000000000000000000000000007F020008C6
:1001B0007F0200087F0200087F0200087F0200081B
:1001C0007F02000800F002F800F03CF80AA090E876
:1001D000000C82448344AAF10107DA4501D100F002
:1001E00031F8AFF2090EBAE80F0013F0010F18BF93
:1001F000FB1A43F001031847001800002018000004
:10020000103A24BF78C878C1FAD8520724BF30C842
:1002100030C144BF04680C60704700000023002414
:1002200000250026103A28BF78C1FBD8520728BF06
:1002300030C148BF0B6070471FB501F0BFFB1FBD49
:1002400010B510BD00F0A9F81146FFF7F5FF01F059
:1002500027FB00F0C7F803B4FFF7F2FF03BC00F080
:10026000CFF800000948804709480047FEE7FEE74D
:10027000FEE7FEE7FEE7FEE7FEE7FEE7FEE7FEE756
:1002800004480549054A064B70470000B9140008A8
:10029000C5010008180100201807002018030020DD
:1002A0001803002053EA020C00F069802DE9F04B9E
:1002B0004FF00006002B1FBFB3FA83F503FA05F4D5
:1002C00024FA05F65E4012BF1643B2FA82F502FA2E
:1002D00005F4C5F120051EBF22FA05FC44EA0C0412
:1002E000203556EA044C4FEA144418BF641C4FF002
:1002F00000084FF00009904271EB030C39D300293C
:1003000019BFB1FA81F701FA07F6B0FA80F700FADF
:1003100007F6C7F120071EBF20FA07FC46EA0C06C5
:100320002037B6FBF4FCA7EB0507103F07F01F0BC7
:10033000CBF120062CFA06F60CFA0BFB44BFB346B1
:100340000026202FA4BF5E464FF0000B5BEA060C90
:1003500008BF4FF0010B19EB0B0948EB0608ABFB8C
:10036000027C06FB02CC0BFB03CCC01B71EB0C0127
:10037000C1E70B46024641464846BDE8F08B13B53F
:10038000084318BF4FF0FF300146AFF30080BDE8CF
:100390001C407047704770477047754600F02CF856
:1003A000AE4605006946534620F00700854618B062
:1003B00020B5FFF765FFBDE820404FF000064FF085
:1003C00000074FF000084FF0000BAC46ACE8C00946
:1003D000ACE8C009ACE8C009ACE8C00921F00701ED
:1003E0008D46704710B50446AFF300802046BDE847
:1003F0001040FFF730BF0000004870471000002099
:1004000001491820ABBEFEE726000200704700003D
:10041000FEE7000040F27000C2F2000000F008B8F1
:1004200070470000EFF3108072B600BFFEE70000D7
:10043000F0B581B004460020009040F20800C2F2FE
:1004400000000268D4E9166048F2B5133768082145
:10045000C1F64E3381403942A2FB03250CD02268FD
:1004600013685B0708D5136823F004031360B160B9
:10047000616D41F00101616501218140394208D07F
:1004800022685269120604D5B160616D41F0020123
:10049000616504218140394208D0226812689207C0
:1004A00004D5B160616D41F00401616510218140A6
:1004B000394217D020680268120713D5B16002686C
:1004C0000168520308D4C90508D4016821F0080165
:1004D0000160216C21B905E008033FD4216C09B10A
:1004E00020468847E16D202000FA01F23A4241D0CF
:1004F00020680368DB063DD5B26094F835300268A9
:10050000052B1BD122F016020260426922F0800204
:100510004261226C0AB9A26C1AB1026822F0080288
:1005200002603F208840B060012084F83500216DD2
:100530000020002984F8340052D157E001685203AA
:1005400010D4C90512D4016821F010010160012006
:1005500084F83500002084F8340007E0A16C0029FD
:10056000BED1BFE7080301D4616C00E0E16B09B1C3
:1005700020468847606DC8B3606DC0072ED0052047
:1005800084F835002068A90A026822F0010202609E
:10059000009A01328A4200921AD80268D20717D014
:1005A000009A01328A42009212D80268D2070FD014
:1005B000009A01328A4200920AD80268D20707D014
:1005C000009A01328A42009202D80268D207DFD133
:1005D000012084F83500002084F83400E16C29B152
:1005E000204601B0BDE8F040084700BF01B0F0BDB3
:1005F0002DE9F041044600F0E1F9002C4ED005460B
:10060000022084F835000020216884F8340008684E
:1006100020F0010008600868C00708D000F0CEF99B
:10062000401B05286CD821680868C007F6D1086807
:1006300048F23F02CFF21002D4E90135024004F142
:100640000C0E9EE8C1511A432A43104330433843ED
:1006500040EA0800626A40EA0C00042A40EA0E03FD
:1006600020D1D4E90A5E206B4EEA030210430860F1
:100670004869BEF1000F20F0030040EA050040F099
:10068000040C15D0B8F5005F42D0B8F1000F51D17D
:10069000022D52D0012D47D055B94EE00120BDE8C2
:1006A000F08100BF0B60486920F0070040EA020CAF
:1006B0006FF00F004AF6AB2250FA81F0CAF6AA2278
:1006C000A0FB02231A0941F6EE13C0F600039A5C60
:1006D00040F2FF335F284FF03F00C1F814C021EA19
:1006E000030100FA02F088BF0431C4E916128860E1
:1006F000002301220020636584F83520BDE8F081E5
:10070000032220230320636584F83520BDE8F081AF
:10071000032DCDD8012240230120DFE805F0030E90
:10072000030500BFE7E700BFAEF1C070B0FA80F08C
:10073000400904E0032D04D3BAD1CEF300600028B1
:10074000B6D0012240230120636584F83520BDE83E
:10075000F081000070B590F834C0BCF1010F46D0B4
:100760004FF0010C80F834C0D0F858E090F835C054
:10077000BCF1010F38D14FF0020C80F835C04FF0BA
:10078000000CC0F854C0D0F800C08468056CC06D7F
:10079000DCF80060402C26F48026CCF80060CCF811
:1007A00004300B4604BF13460A463F2101FA00F00D
:1007B000CCF80830CCF80C20CEF80800DCF80000AB
:1007C00040F01600CCF800002DB1DCF8000040F03D
:1007D0000800CCF80000DCF8000040F00100CCF884
:1007E0000000002070BD00BF002180F834100220FE
:1007F00070BD00002DE9F04F82B000F13E4241F69D
:10080000000502F1FF77C4F2020507224FEAB7267E
:10081000A84208BF0622062E38BF4FEAB7224FF083
:10082000010A002400274FF00008009208E000BFF2
:10083000023708F10108202F04F1040400F0B4800D
:100840000E680AFA08F916EA090FF1D0D1F804A0E7
:100850000AF0030BABF10106012E17D803228668BC
:1008600002FA07FECA6826EA0E06BA4032438260E0
:100870004268CAF3001522EA090205FA08F54FEAB0
:10088000480C6FEA0E062A4342600BE00322BA408E
:10089000D643BBF1030FBC4604D1BC464FF0030B5B
:1008A00022E000BFC2688D68324005FA0CF52A4389
:1008B000BBF1020FC26017D16FF0030202EA5802C7
:1008C000024404F01C030F25D2F820E005FA03FAD5
:1008D0000D692EEA0A0E05FA03F343EA0E031362CA
:1008E000D1F804A00AF0030B02680BFA0CF33240B3
:1008F0001A431AF4403F4FF0010A026098D00022D8
:1009000043F644030192C4F202031A6843F6004E10
:1009100042F480421A601A68C4F2010E02F4804266
:100920000192019A28F003024FF6084C7244CFF668
:10093000FF7C52F80C3004F00C060F25B540AB4399
:10094000009D05FA06F6334342F80C30DEF8082025
:100950004B6842EA090643F60C4CDD0258BF22EA16
:100960000906CEF80860C4F2010CDCF800209D02F4
:1009700042EA090658BF22EA0906CCF80060DEF810
:1009800004209D0342EA090658BF22EA0906CEF870
:100990000460DEF80020DB0342EA090658BF22EAC1
:1009A0000906CEF8006043E702B0BDE8F08F000012
:1009B000002A08BF090481617047000040F214104A
:1009C000C2F200000068704740F2000040F21411CB
:1009D000C2F20000C2F2000100780A681044086008
:1009E0007047000080B543F60040C4F20200016881
:1009F00041F400710160016841F4806101600168A7
:100A000041F480710160032000F086F8002000F0BE
:100A100005F800F027F8002080BD000070B540F216
:100A20000006C2F2000640F208013278C2F200016C
:100A30004FF47A730968B3FBF2F20446B1FBF2F1AA
:100A4000084600F07BFB0F2C4FF0010508D838B9A1
:100A50004FF0FF3021460022002500F031F874608D
:100A6000284670BD82B0002043F640010190C4F2D8
:100A700002014A6842F480424A604A6802F48042B5
:100A80000192019A0090086840F080500860086860
:100A900000F0805000900098072002B000F03CB8B1
:100AA000002848BF704700F01F01012202FA01F13F
:100AB0004EF200124009CEF2000242F820107047B8
:100AC00010B54EF60C5CCEF2000CDCF80030C3F32F
:100AD000022E8EF00704042C28BF0424BEF1030369
:100AE0004FF0FF3E0EFA04F438BF0023A1439940B3
:100AF0000EFA03F39A43114300F00F02043A6244E2
:100B000009010C3200F16043B0F1FF3FC8BF03F5AB
:100B10006442117010BD00004EF60C51CEF200017F
:100B20000A684FF6FF031A4060F30A2242F0806021
:100B300040F0FD70086070472DE9F041002800F09A
:100B40008B8043F60808C4F202080446D8F8F8037C
:100B50000D4600F00F00884207D288F8F853D8F805
:100B6000F80300F00F00A84276D12068810717D55E
:100B7000410705D5D8F8001041F4E051C8F800103D
:100B8000010705D5D8F8001041F46041C8F80010FD
:100B9000D8F80010A26821F0F0011143C8F8001045
:100BA000C0073FD1D8F8F80300F00F00A84207D9DA
:100BB00088F8F853D8F8F80300F00F00A8424BD19A
:100BC0002068410707D5D8F80010E26821F4E05109
:100BD0001143C8F80010000708D5D8F800002169B3
:100BE00020F4604040EAC100C8F8000000F07CF842
:100BF000D8F8001041F6D612C1F30311C0F6000276
:100C0000515C40F2080220FA01F140F20400C2F205
:100C100000000068C2F200021160FFF7FFFE002032
:100C2000BDE8F0816068811E022907D258F8081CCF
:100C300089015CBF0120BDE8F08111E0012807D1E6
:100C400058F8081C89035CBF0120BDE8F08107E06B
:100C500058F8081C890703D40120BDE8F08100BFC3
:100C6000D8F8001021F003010843C8F80000FFF78E
:100C7000A5FE064641F28837D8F80000616800F00A
:100C80000C00B0EB810F8DD0FFF798FE801BB842AF
:100C9000F2D90320BDE8F08140F2080043F60801D4
:100CA000C2F20000C4F202010068096841F6E612CF
:100CB000C1F38221C0F60002515CC84070470000B9
:100CC00040F2080043F60801C2F20000C4F202013B
:100CD0000068096841F6E612C1F34231C0F600022D
:100CE000515CC8407047000010B543F60404C4F2DC
:100CF00002046068C0F3810142F20040C0F2F400D7
:100D0000DFE801F04402081841F20020C0F27A0046
:100D100010BD00BF216801F03F022168236849022D
:100D2000C3F3881116D4A1FB00010023FFF7BAFA20
:100D300017E000BF216801F03F02216823684902E3
:100D4000C3F3881116D4A1FB00010023FFF7AAFA10
:100D500017E000BF41F20020C0F27A004843B0FB28
:100D6000F2F021680222C1F3014102EB4101B0FB24
:100D7000F1F010BD41F20020C0F27A004843B0FB10
:100D8000F2F02168C1F30271B0FBF1F010BD000078
:100D90002DE9F04182B0002800F0968004460078EA
:100DA00043F60006C007C4F202062BD0B06800F07C
:100DB0000C00042820D0B06800F00C00082802D1F4
:100DC0007068400218D4B06800F00C000C2802D102
:100DD0007068400210D46068B0F5803F07D0B0F56D
:100DE000A02F40F03B81306840F4802030603068B4
:100DF00040F4803030603BE13068800302D56068A9
:100E0000002861D02078800722D5B06810F00C0F40
:100E100011D0B06800F00C00082802D170684002C0
:100E200009D5B06800F00C000C2840F09F80706875
:100E3000400200F19B803068800702D5E0680128FD
:100E400042D13068216920F0F80040EAC1003060EA
:100E5000207800073CD42078400751D4A5698DB391
:100E6000B06800F00C00082840F0A880012D2BD0BD
:100E70007068E16900F480028A4225D1216A00F09D
:100E80003F028A4220D147F6C071626A0140B1EB4D
:100E9000821F19D1A26A0023CFF6FF7303EBC2327F
:100EA00000F440316FF30F0291420DD1E16A00F07E
:100EB0007062B2EB016F07D1216B00F0E040B0EB44
:100EC000017F01D1002035E1012002B0BDE8F081B1
:100ED0006069002840F20000C4F247205ED0012182
:100EE000C0F8801EFFF76AFD054600BF706F8007DF
:100EF000B1D4FFF763FD401B0228F7D9C5E000BF5E
:100F0000306C10F080580AD100200190306C40F015
:100F100080503064306C00F080500190019847F2AE
:100F20000007C4F200073868C00511D4386840F4DF
:100F300080703860FFF742FD054600BF3868C00585
:100F400006D4FFF73BFD401B0228F7D99DE000BF08
:100F5000A068012805D0052852D1306F40F0040068
:100F60003067306F40F00100306753E0E0680028E0
:100F700060D00020C4F2472001210160FFF71EFD70
:100F8000054600BF306880073FF55BAFFFF716FDF1
:100F9000401B02284FF00300F4D9CBE00021C0F839
:100FA000801EFFF70BFD0546706F80077FF553AF7E
:100FB000FFF704FD401B0228F6D966E00027C4F2C3
:100FC000472700203866FFF7F9FC022D05460BD1B4
:100FD000306880015ED5FFF7F1FC401B02284FF01E
:100FE0000300F5D9A6E000BF306880017FF56AAF45
:100FF000FFF7E4FC401B02284FF00300F4D999E00E
:10100000316F002821F001013167316F21F00401B7
:10101000316765D0FFF7D2FC054641F2883700BF43
:10102000306F80076ED4FFF7C9FC401BB842F7D978
:101030002BE000BF0020C4F2472000210160FFF731
:10104000BDFC0546306880077FF502AFFFF7B6FCB0
:10105000401B02284FF00300F4D96BE031680028F0
:1010600021F480313160316821F48021316053D026
:10107000FFF7A4FC054600BF306880033FF5C2AE11
:10108000FFF79CFC401B6428F6D9032002B0BDE8A2
:10109000F08100BF04F11C052FCD246B0843002113
:1010A000CFF6FF7140EA821001EBC3316FF30F01FD
:1010B00040EA0560084340EA047070600120386629
:1010C000FFF77CFC044600BF306880013FF5FAAEB4
:1010D000FFF774FC001B02284FF00300F4D929E04D
:1010E000FFF76CFC054641F2883700BF306F800780
:1010F00008D5FFF763FC401BB8424FF00300F5D959
:1011000018E000BFB8F1000F7FF4A8AE306C20F0FB
:1011100080503064A2E600BFFFF750FC05463068FF
:1011200080037FF56FAEFFF749FC401B64284FF04A
:101130000300F4D902B0BDE8F0810000411E002098
:10114000B0EB116F1CBF012070474EF21002CEF2BF
:10115000000251604EF62351CEF20001F0230B70D5
:1011600007219060116070477047000070470000D1
:10117000002804BF0120704710B5044690F83D00D8
:1011800028B9002084F83C00204600F021F82420F3
:1011900084F83D002068C16821F40051C1602046F8
:1011A00000F00AFB2068016921F490410161416966
:1011B00021F02A014161C16841F40051C160002061
:1011C0002021206484F83D1084F83E1010BD0000FA
:1011D00070B586B00446016844F20040C4F20000D5
:1011E000814201D006B070BD002643F63001019661
:1011F000C4F202010A6900F5DE3042F400320A61ED
:101200000A6902F400320192019A01960A6842F0DA
:1012100001020A60096801F00101019101990C21A4
:1012200001910221CDE902160321049107210591C4
:1012300001A9FFF7DFFA40F2700546F28800C2F21A
:101240000005C4F202004FF000614FF4806285E8AF
:1012500043002846C5E90362C5E90566C5E9076696
:101260006E62FFF7C5F9002818BFFFF7DBF8A5632A
:10127000AC6306B070BD000070B582B0044690F853
:101280003E0020280ED113460A4600294FF00100E7
:1012900018BF002B02D102B070BD00BF94F83C0013
:1012A000012803D1022002B070BD00BF012084F8E4
:1012B0003C00002622202663A262A385266484F8CF
:1012C0003E002168A06B41F2496C41F2A57E41F2DB
:1012D000CD45C0F6000CC0F6000EC0F60005043186
:1012E000C0E90FCEC0E91356FFF734FA0196206823
:1012F00001680191416801910199216984F83C607C
:1013000031B300BF50E8030F216840F4807041E81A
:101310000302EAB1206850E8030F216840F48070AE
:1013200041E80302A2B1206850E8030F216840F4AD
:10133000807041E803025AB1206850E8030F216829
:1013400040F4807041E8030212B12068DAE700BF80
:10135000206850E8050F216840F0010041E80502CF
:10136000E2B1206850E8050F216840F0010041E833
:1013700005029AB1206850E8050F216840F001008D
:1013800041E8050252B1206850E8050F216840F09D
:10139000010041E80502002ADAD100BF206850E8C8
:1013A000050F216840F0400041E80502DAB12068ED
:1013B00050E8050F216840F0400041E8050292B175
:1013C000206850E8050F216840F0400041E8050220
:1013D0004AB1206850E8050F216840F0400041E81C
:1013E0000502002ADAD1002002B070BD704700006B
:1013F00070470000FEE70000FEE70000FEE7000087
:101400007047000070470000FFF7DEBAB0B594B037
:10141000002443F640000C94CDE90A44CDE9084489
:101420000694CDE90444CDE902440194C4F20200DB
:101430000168012241F0805101600068022500F03E
:1014400080500190019847F200000194C4F200001E
:10145000016862F38F310160006800F44040019040
:10146000019810200B900F904FF4A870109004205A
:10147000CDE9110507A807950A92CDE90D541395FA
:10148000FFF786FC20B1EFF3108072B6FEE700BFD5
:101490000F20CDE902054FF48050CDE9050402A8E4
:1014A00002210494FFF748FB20B1EFF3108072B6DD
:1014B000FEE700BF14B0B0BD4EF68850CEF200007B
:1014C000016841F47001016070470000806B0168A1
:1014D0004A6990F83D30212B2ED112F080022BD09A
:1014E0000022C28451E8031F026821F0C00142E8D3
:1014F0000313EBB1016851E8031F026821F0C0013A
:1015000042E80313A3B1016851E8031F026821F008
:10151000C00142E803135BB1016851E8031F026890
:1015200021F0C00142E8031313B10168DAE700BFFC
:10153000202180F83D1001684A6990F83E30222B46
:101540007CD112F0400279D00022C28551E8031FFD
:10155000026821F4907142E80313C3B3016851E8B3
:10156000031F026821F4907142E803137BB3016802
:1015700051E8031F026821F4907142E8031333B36A
:10158000016851E8031F026821F4907142E80313D7
:10159000EBB10168DAE700BF016851E8051F026896
:1015A00021F0010142E80513DBB1016851E8051F94
:1015B000026821F0010142E8051393B1016851E886
:1015C000051F026821F0010142E805134BB10168D3
:1015D00051E8051F026821F0010142E80513002BC4
:1015E000DAD1016B012924D1016851E8031F026897
:1015F00021F0100142E80313DBB1016851E8031F39
:10160000026821F0100142E8031393B1016851E828
:10161000031F026821F0100142E803134BB1016877
:1016200051E8031F026821F0100142E80313002B68
:10163000DAD1202180F83E1000210163016C41F0D5
:1016400010010164FFF792BD0168806B0968C9054C
:1016500000F19F800021C185016851E8031F0268E5
:1016600021F4807142E80313E3B1016851E8031FDC
:10167000026821F4807142E803139BB1016851E8CC
:10168000031F026821F4807142E8031353B101681B
:1016900051E8031F026821F4807142E80313002B14
:1016A000DAD100BF016851E8051F026821F001018D
:1016B00042E80513BBB3016851E8051F026821F039
:1016C000010142E8051373B3016851E8051F026880
:1016D00021F0010142E805132BB3016851E8051F11
:1016E000026821F0010142E80513002BDAD11AE06B
:1016F000016851E8051F026821F0400142E8051326
:10170000DBB1016851E8051F026821F0400142E8A1
:10171000051393B1016851E8051F026821F04001EB
:1017200042E805134BB1016851E8051F026821F03A
:10173000400142E80513002BDAD1202180F83E1049
:10174000016B012925D100BF016851E8031F026820
:1017500021F0100142E80313DBB1016851E8031FD7
:10176000026821F0100142E8031393B1016851E8C7
:10177000031F026821F0100142E803134BB1016816
:1017800051E8031F026821F0100142E80313002B07
:10179000DAD1016B012918BFFFF728BE818DFFF751
:1017A000E3BC0000806B016B012918BFFFF720BE6E
:1017B000818D4908FFF7D8BC10B504460068D4E90C
:1017C00002C22369016921F4405111430161626938
:1017D00043EA0C01E3691143C268194349F20C63FF
:1017E0009A431143C1604169A26921F4407141F2F9
:1017F0000043114340F48062C4F201039A42416104
:1018000002D1FFF75DFA01E0FFF746FAE16963688C
:101810001922B1F5004FA0FB02011FD15A00DB0FC6
:10182000FEF740FD48F21F51C5F2EB11A0FB01236A
:101830005A096FF0630302FB0300322303EBC0007D
:10184000A0FB01014FF4F87000EA111000EB021048
:10185000C1F3421108442168886010BD9A009B0FB3
:10186000FEF720FD48F21F51C5F2EB11A0FB01234A
:101870005A096FF0630302FB0300322303EB0010ED
:10188000A0FB0101F02000EA511000EB0210C1F3AF
:10189000431108442168886010BD0000FEE7000085
:1018A00086B0FFF79FF8FFF7B1FD002643F630073B
:1018B000CDE904660096C4F202073868002440F0BF
:1018C000040038603868C4F2020400F0040000909C
:1018D000009800963868202140F080003860386811
:1018E000002200F0800000900098009638684FF0C9
:1018F000200840F001003860386800F001000090D6
:1019000000980096386840F002003860386800F0AF
:101910000200009000982046FFF74AF84FF400506C
:1019200001904FF4041001ADCDE9020604F500600A
:101930002946FEF75FFF0120CDE902062046294631
:10194000CDF804800496FEF755FF01963868002113
:1019500040F4001038603868002200F40010019054
:1019600001981020FFF7ACF81020FFF799F840F22B
:10197000D000A4F5DE31C2F200000C234FF4E132B6
:1019800080E84600C0E90366C0E90536C661FFF796
:10199000EFFB28B1EFF3108072B600BFFEE700BF87
:1019A00040F2D00440F60005C2F20004C2F2000585
:1019B000204629466422FFF75FFCF9E7F1EE100AA2
:1019C0004FF6FF71C0F2C03120EA010040F04070D4
:1019D000E1EE100A70470000000000000000010264
:1019E00003040607080900000000010203040006C2
:1019F0001016000610160000181A0008000000203B
:101A00001000000000020008281A00081000002042
:101A1000080700001C020008010000001000000080
:081A20000024F40000000000A6
:04000005080001C529
:00000001FF
