:020000040800F2
:10000000F807002065020008DD200008491F0008ED
:10001000D9200008A10400088D2400080000000079
:100020000000000000000000000000005121000856
:10003000A5040008000000004D210008A9210008C7
:100040007F0200087F0200087F0200087F0200088C
:100050007F0200087F0200087F0200087F0200087C
:100060007F0200087F0200087F0200087F0200086C
:100070007F0200087F0200087F0200087F0200085C
:100080007F0200087F0200087F0200087F0200084C
:100090007F0200087F0200087F0200087F0200083C
:1000A0007F0200087F0200087F0200087F0200082C
:1000B0007F0200087F0200087F0200087F0200081C
:1000C0007F0200087F0200087F0200087F0200080C
:1000D0007F0200087F0200087F0200087F020008FC
:1000E0007F0200087F0200087F0200087F020008EC
:1000F0007F0200087F0200087F0200087F020008DC
:100100007F0200087F0200087F0200087F020008CB
:100110007F0200087F0200087F0200087F020008BB
:100120007F0200087F0200087F0200087F020008AB
:100130007F02000800000000000000007F020008AD
:100140007F0200087F0200087F0200087F0200088B
:100150007F0200087F0200087F0200087F0200087B
:100160007F0200087F0200087F0200087F0200086B
:100170007F0200087F0200087F02000800000000E4
:10018000000000007F0200080000000000000000E6
:100190007F02000800000000000000007F0200084D
:1001A0000000000000000000000000007F020008C6
:1001B0007F0200087F0200087F0200087F0200081B
:1001C0007F02000800F002F800F03CF80AA090E876
:1001D000000C82448344AAF10107DA4501D100F002
:1001E00031F8AFF2090EBAE80F0013F0010F18BF93
:1001F000FB1A43F001031847402F0000602F000056
:10020000103A24BF78C878C1FAD8520724BF30C842
:1002100030C144BF04680C60704700000023002414
:1002200000250026103A28BF78C1FBD8520728BF06
:1002300030C148BF0B6070471FB502F0A6FD1FBD5F
:1002400010B510BD00F0F2F81146FFF7F5FF02F00F
:1002500017FD00F010F903B4FFF7F2FF03BC00F044
:1002600017F900000948804709480047FEE7FEE704
:10027000FEE7FEE7FEE7FEE7FEE7FEE7FEE7FEE756
:1002800004480549054A064B7047000069220008EA
:10029000C5010008F8010020F8070020F80300203D
:1002A000F803002053EA020C00F069802DE9F04BBE
:1002B0004FF00006002B1FBFB3FA83F503FA05F4D5
:1002C00024FA05F65E4012BF1643B2FA82F502FA2E
:1002D00005F4C5F120051EBF22FA05FC44EA0C0412
:1002E000203556EA044C4FEA144418BF641C4FF002
:1002F00000084FF00009904271EB030C39D300293C
:1003000019BFB1FA81F701FA07F6B0FA80F700FADF
:1003100007F6C7F120071EBF20FA07FC46EA0C06C5
:100320002037B6FBF4FCA7EB0507103F07F01F0BC7
:10033000CBF120062CFA06F60CFA0BFB44BFB346B1
:100340000026202FA4BF5E464FF0000B5BEA060C90
:1003500008BF4FF0010B19EB0B0948EB0608ABFB8C
:10036000027C06FB02CC0BFB03CCC01B71EB0C0127
:10037000C1E70B46024641464846BDE8F08B13B53F
:10038000084318BF4FF0FF300146AFF30080BDE8CF
:100390001C4070474FF000020429C0F0128010F09A
:1003A000030C00F01B80CCF1040CBCF1020F18BF51
:1003B00000F8012BA8BF20F8022BA1EB0C0100F0E4
:1003C0000DB85FEAC17C24BF00F8012B00F8012BB7
:1003D00048BF00F8012B70474FF0000200B51346EC
:1003E00094469646203922BFA0E80C50A0E80C5055
:1003F000B1F12001BFF4F7AF090728BFA0E80C5006
:1004000048BF0CC05DF804EB890028BF40F8042BFE
:1004100008BF704748BF20F8022B11F0804F18BF6B
:1004200000F8012B7047704770477047754600F021
:100430002BF8AE4605006946534620F00700854676
:1004400018B020B5FFF71CFFBDE820404FF00006B4
:100450004FF000074FF000084FF0000BAC46ACE83F
:10046000C009ACE8C009ACE8C009ACE8C00921F09B
:1004700007018D46704710B50446AFF30080204653
:10048000BDE81040FFF7E7BE0048704718000020A5
:1004900001491820ABBEFEE72600020070470000AD
:1004A000FFE7FEE77047000081B0EFF3108072B6FF
:1004B0000090FFE7FEE7000083B002908DF8071080
:1004C000002000909DF8070018B9FFE70020009079
:1004D00017E09DF80700012804D1FFE74FF4807072
:1004E00000900DE09DF80700022804D1FFE74FF4CB
:1004F0000070009003E04FF440700090FFE7FFE7CA
:10050000FFE743F61041C4F20201086820F440708E
:100510000860009A086810430860086820F0F80036
:100520000860029A086840EAC20040F002000860D1
:10053000086840F48030086003B0704743F600401C
:10054000C4F202000068800500281FD5FFE743F6CB
:100550000041C4F20201086820F400700860FFE75F
:1005600043F60041C4F20201086840F400600860EC
:10057000086820F400600860FFE743F60041C4F219
:100580000201086840F400700860FFE743F600408D
:10059000C4F202000068400500281FD5FFE743F6BB
:1005A0000041C4F20201086820F480600860FFE79F
:1005B00043F60041C4F20201086840F4805008602C
:1005C000086820F480500860FFE743F60041C4F259
:1005D0000201086840F480600860FFE7704700008F
:1005E00082B08DF80700009143F61041C4F2020179
:1005F000086820F440700860086840F00400086053
:100600009DF80720086840EA022040F48030086026
:1006100002B0704743F60C40C4F202000068C00606
:1006200000280FD5FFE740F2D011C2F20001C869DF
:1006300040F01000C86143F60C41C4F202011020E2
:100640000860FFE743F60C40C4F202000068800631
:1006500000280FD5FFE740F2D011C2F20001C869AF
:1006600040F00800C86143F60C41C4F202012020AA
:100670000860FFE743F60C40C4F202000068400641
:1006800000280FD5FFE740F2D011C2F20001C8697F
:1006900040F00400C86143F60C41C4F2020140205E
:1006A0000860FFE743F60C40C4F202000068000651
:1006B00000280FD5FFE740F2D011C2F20001C8694F
:1006C00040F00200C86143F60C41C4F202018020F0
:1006D0000860FFE743F60C40C4F202000068C00562
:1006E000002810D5FFE740F2D011C2F20001C8691E
:1006F00040F00100C86143F60C41C4F202014FF41E
:1007000080700860FFE743F60C40C4F20200006806
:10071000800700280FD5FFE740F2D011C2F2000198
:10072000C86940F02000C86143F60C41C4F20201E0
:1007300002200860FFE7704780B584B00290002077
:10074000019040F2D011C2F20001C86100F068FBD4
:100750000190FFE743F60C40C4F202000068C003BA
:10076000002815D5FFE70298013080B1FFE7029815
:1007700040B1FFE700F054FB0199401A029988420A
:1007800004D9FFE703208DF80F0023E0FFE7E1E73E
:1007900043F60C40C4F202000068C00738B1FFE71E
:1007A00043F60C41C4F2020101200860FFE743F662
:1007B0000C40C4F20200006810F4F97F06D0FFE795
:1007C000FFF728FF01208DF80F0003E000208DF8CF
:1007D0000F00FFE79DF80F0004B080BD85B00490C6
:1007E0000391029200200090049A0221517101901D
:1007F000FFE70198029988420CD2FFE7039801991C
:1008000050F82100049909680860FFE70198013059
:100810000190EEE7049800680068009004990120B8
:100820004871009805B0704780B582B0009000987C
:1008300020B9FFE701208DF8070011E0009840790A
:1008400038B9FFE7009900200871009800F00CF813
:10085000FFE700990120487100208DF80700FFE7AD
:100860009DF8070002B080BD82B001900198006839
:1008700043F20001C4F20201884212D1FFE7FFE710
:100880000020009043F63000C4F20200016841F4F9
:1008900080510160006800F4805000900098FFE7EC
:1008A000FFE702B07047000080B586B00490039166
:1008B00001208DF80B0000200190FFE740F2D010DE
:1008C000C2F20000007E012804D1FFE702208DF86B
:1008D00017006CE040F2D011C2F20001012008764E
:1008E000FFE7FFE74CF25030FFF726FF8DF80B00D3
:1008F0009DF80B0000284DD1FFE703994FF0FF3022
:10090000086004980068012814D1FFE70499087C66
:100910004968FFF765FE4CF25030FFF70DFF8DF888
:100920000B0043F61041C4F20201086820F00400F5
:1009300008602CE0049880680190FFE70198049912
:100940008A68C9681144884220D2FFE70198049957
:10095000097CFFF7B1FD4CF25030FFF7EDFE8DF84A
:100960000B0043F61041C4F20201086820F0FA00BF
:1009700008609DF80B0020B1FFE70198039908601B
:1009800004E0FFE7019801300190D7E7FFE7FFF7A8
:10099000D5FDFFE7FFE740F2D011C2F200010020D1
:1009A0000876FFE79DF80B008DF81700FFE79DF82C
:1009B000170006B080BD000043F61041C4F20201EA
:1009C000086840F0004008600020704781B00020B7
:1009D0008DF8030043F61040C4F202000068C00F17
:1009E000D8B1FFE743F60441C4F2020140F22310FC
:1009F000C4F26750086048F6AB10CCF6EF500860C0
:100A000043F61040C4F202000068C00F20B1FFE7B7
:100A100001208DF80300FFE7FFE79DF8030001B018
:100A2000704700008DB00C900B9100200990089049
:100A300007900A90FFE70A980F2800F2BE81FFE7AF
:100A40000A990120884009900B980068099908408C
:100A5000089008980999884240F0AA81FFE70B980E
:100A6000406800F00300012807D0FFE70B984068BA
:100A700000F0030002282FD1FFE70C988068079050
:100A80000A984100032000FA01F107988843079073
:100A90000B98C0680A99490000FA01F107980843C9
:100AA000079007980C9988600C98406807900A99FD
:100AB000012000FA01F10798884307900B984068DD
:100AC000C0F300100A9900FA01F107980843079053
:100AD00007980C994860FFE70B98406800F0030006
:100AE000032818D0FFE70C98C06807900A984100C7
:100AF000032000FA01F10798884307900B9880685B
:100B00000A99490000FA01F10798084307900798ED
:100B10000C99C860FFE70B98406800F003000228BA
:100B200026D1FFE70C980A996FF0030202EA5101FF
:100B30000844006A07900A9800F0070081000F201F
:100B400000FA01F10798884307900B9800690A9909
:100B500001F00701890000FA01F1079808430790A6
:100B600007980C990A9B02EA530211440862FFE7B6
:100B70000C98006807900A984100032000FA01F1E0
:100B80000798884307900B98406800F003000A9983
:100B9000490000FA01F107980843079007980C995B
:100BA00008600B9880798007002800F00081FFE73B
:100BB000FFE70020069043F64400C4F202000168FB
:100BC00041F480410160006800F48040069006987E
:100BD000FFE70A9820F0030043F60801C4F2010180
:100BE000405807900A9800F0030081000F2000FA97
:100BF00001F10798884307900C980021C4F2020184
:100C0000884203D1FFE70020059050E00C9840F2A5
:100C10000041C4F20201884203D1FFE701200490A1
:100C200042E00C9840F60001C4F20201884203D170
:100C3000FFE70220039034E00C9840F60041C4F234
:100C40000201884203D1FFE70320029026E00C98BE
:100C500041F20001C4F20201884203D1FFE70420FF
:100C6000019018E00C9841F20041C4F20201884260
:100C700003D1FFE7052000900AE00C9941F600023D
:100C8000C4F202020720914208BF06200090FFE74D
:100C900000980190FFE701980290FFE70298039007
:100CA000FFE703980490FFE704980590FFE7059895
:100CB000C0B20A9901F00301890000FA01F1079816
:100CC0000843079007980A9921F0030143F60802A8
:100CD000C4F20102885043F60840C4F201000068E3
:100CE000079008990798884307900B988079C00669
:100CF000002805D5FFE70899079808430790FFE704
:100D0000079843F60841C4F20101086043F60C401D
:100D1000C4F201000068079008990798884307907B
:100D20000B9880798006002805D5FFE70899079879
:100D300008430790FFE7079843F60C41C4F201010E
:100D4000086043F60440C4F2010000680790089967
:100D50000798884307900B9880798007002805D56D
:100D6000FFE70899079808430790FFE7079843F6BD
:100D70000441C4F20101086043F60040C4F20100DE
:100D80000068079008990798884307900B98807926
:100D9000C00728B1FFE70899079808430790FFE7C5
:100DA000079843F60041C4F201010860FFE7FFE73E
:100DB000FFE70A9801300A903DE60DB07047000049
:100DC00082B00190ADF8021001980069BDF80210E0
:100DD000084204D0FFE701208DF8010003E0002065
:100DE0008DF80100FFE79DF8010002B07047000098
:100DF00082B00190ADF802108DF801209DF801003D
:100E000028B1FFE7BDF802000199886105E0BDF84F
:100E10000200000401998861FFE702B070470000FA
:100E200040F2F010C2F200000068704740F20C007F
:100E3000C2F20000027840F2F011C2F2000108682C
:100E4000104408607047000080B582B043F600414E
:100E5000C4F20201086840F400700860086840F4B9
:100E600080600860086840F480700860032000F02B
:100E700085F80020019000F005F800F03BF801989B
:100E800002B080BD80B582B0009040F20000C2F296
:100E90000000006840F20C01C2F200010A784FF431
:100EA0007A71B1FBF2F1B0FBF1F000F017FE20B166
:100EB000FFE701208DF8070018E000980F280DD8F3
:100EC000FFE700994FF0FF30002200F03DF8009856
:100ED00040F21001C2F20001086003E001208DF829
:100EE000070003E000208DF80700FFE79DF80700EA
:100EF00002B080BD80B582B0FFE70020019043F6CC
:100F00004400C4F20200016841F4804101600068BD
:100F100000F4804001900198FFE7FFE70020009077
:100F200043F64000C4F20200016841F080510160C4
:100F3000006800F0805000900098FFE7072000F064
:100F40001DF802B080BD000080B586B08DF8170096
:100F5000049103920020029001F09AFA02909DF908
:100F60001700019002980499039A01F0B9F801461C
:100F7000019801F095FA06B080BD000080B582B0FE
:100F80000190019801F0AEFA02B080BD80B584B046
:100F900002900191029820B9FFE701208DF80F001F
:100FA00021E1019843F60041C4F20201096801F011
:100FB0000F01884212D9FFE7019943F60040C4F2BD
:100FC00002000170006800F00F000199884204D00F
:100FD000FFE701208DF80F0005E1FFE70298007898
:100FE000800700282AD5FFE70298007840070028EC
:100FF00009D5FFE743F60801C4F20201086840F48E
:10100000E0500860FFE7029800780007002809D543
:10101000FFE743F60801C4F20201086840F46040AB
:101020000860FFE743F60801C4F20201086820F0F7
:10103000F000029A926810430860FFE70298007877
:10104000C00700286ED0FFE702984068012811D140
:10105000FFE743F60000C4F20200006800F400312C
:101060000020B0EB514F04D1FFE701208DF80F00B5
:10107000B9E02CE002984068022805D0FFE702980A
:101080004068032811D1FFE743F60000C4F20200D4
:10109000006800F000710020B0EB516F04D1FFE751
:1010A00001208DF80F009EE010E043F60000C4F22E
:1010B0000200006800F002010020B0EB510F04D1E3
:1010C000FFE701208DF80F008DE0FFE7FFE743F613
:1010D0000801C4F20201086820F00300029A526875
:1010E00010430860FFF79CFE0090FFE743F60800FE
:1010F000C4F20200006800F00C0002994968B0EBED
:10110000810F0ED0FFE7FFF78BFE0099401A41F2E6
:101110008931884204D3FFE703208DF80F0062E095
:10112000E4E7FFE7019843F60041C4F202010968D1
:1011300001F00F01884212D2FFE7019943F6004007
:10114000C4F202000170006800F00F0001998842AB
:1011500004D0FFE701208DF80F0044E0FFE702987C
:101160000078400700280CD5FFE743F60801C4F2D9
:101170000201086820F4E050029AD2681043086027
:10118000FFE702980078000700280DD5FFE743F637
:101190000801C4F20201086820F46040029A126952
:1011A00040EAC2000860FFE700F04CF843F608018F
:1011B000C4F202010968C9B20A0942F6A451C0F694
:1011C0000001895CC84040F20001C2F200010860E1
:1011D00040F21000C2F200000068FFF753FE00204A
:1011E0008DF80F00FFE79DF80F0004B080BD0000F0
:1011F00040F20000C2F200000068704780B5FFF7BF
:10120000F7FF43F60801C4F202010968C1F3822224
:1012100042F6B451C0F60001895CC84080BD0000B0
:1012200080B5FFF7E5FF43F60801C4F20201096843
:1012300089B24A0B42F6B451C0F60001895CC8403D
:1012400080BD000080B586B000200590049003901A
:101250000290019043F60800C4F20200006800F01A
:101260000C00014600910C2800F29B800099DFE8F9
:1012700001F0079898980D989898139898985700A7
:1012800042F20040C0F2F400019090E041F20020F0
:10129000C0F27A0001908AE043F60400C4F2020032
:1012A000016801F03F01059100684002002813D554
:1012B000FFE743F60400C4F202000068C0F38810A0
:1012C00041F20021C0F27A01A0FB0101059A00233E
:1012D000FEF7E8FF049012E043F60400C4F20200B7
:1012E0000068C0F3881042F20041C0F2F401A0FB94
:1012F0000101059A0023FEF7D5FF0490FFE743F6AE
:101300000400C4F20200006800F44031022000EB47
:10131000D130039004980399B0FBF1F0019046E0BE
:1013200043F60400C4F20200016801F03F01059198
:1013300000684002002813D5FFE743F60400C4F21A
:1013400002000068C0F3881041F20021C0F27A0167
:10135000A0FB0101059A0023FEF7A4FF049012E010
:1013600043F60400C4F202000068C0F3881042F2A1
:101370000041C0F2F401A0FB0101059A0023FEF731
:1013800091FF0490FFE743F60400C4F202000068F6
:10139000C0F30270029004980299B0FBF1F0019042
:1013A00005E042F20040C0F2F4000190FFE701982E
:1013B00006B080BD80B586B00490049820B9FFE7E0
:1013C00001208DF8170084E304980078C0070028F6
:1013D00000F0BA80FFE743F60800C4F2020000689C
:1013E00000F00C00042828D0FFE743F60800C4F200
:1013F0000200006800F00C0008280BD1FFE743F65C
:101400000400C4F20200006800F48000B0F5800F10
:1014100013D0FFE743F60800C4F20200006800F0B2
:101420000C000C281ED1FFE743F60400C4F20200B2
:1014300000684002002815D5FFE743F60000C4F21B
:101440000200006800F400310020B0EB514F08D0DA
:10145000FFE70498406820B9FFE701208DF81700E6
:1014600037E370E0FFE704984068B0F5803F09D1AA
:10147000FFE743F60001C4F20201086840F480303F
:10148000086020E004984068B0F5A02F0DD1FFE778
:1014900043F60001C4F20201086840F480200860AD
:1014A000086840F4803008600CE043F60001C4F2A4
:1014B0000201086820F480300860086820F4802069
:1014C0000860FFE7FFE7FFE704984068E8B1FFE73F
:1014D000FFF7A6FC0390FFE743F60000C4F202000A
:1014E000006800F400310020B0EB514F0CD1FFE751
:1014F000FFF796FC0399401A652804D3FFE7032001
:101500008DF81700E5E2E7E71CE0FFF789FC0390A0
:10151000FFE743F60000C4F20200006800F4003167
:101520000020B0EB514F0CD0FFE7FFF779FC039997
:10153000401A652804D3FFE703208DF81700C8E29E
:10154000E7E7FFE7FFE7FFE7049800788007002858
:1015500040F1A980FFE743F60800C4F202000068EA
:1015600010F00C0F26D0FFE743F60800C4F202008B
:10157000006800F00C00082809D1FFE743F60400DA
:10158000C4F2020000684002002813D5FFE743F6CA
:101590000800C4F20200006800F00C000C282CD1F6
:1015A000FFE743F60400C4F202000068400200288E
:1015B00023D4FFE743F60000C4F20200006800F005
:1015C00002010020B0EB510F09D0FFE70498C0687A
:1015D000012804D0FFE701208DF8170079E243F6D7
:1015E0000001C4F20201086820F0F800049A1269B0
:1015F00040EAC2000860FFE754E00498C06870B396
:10160000FFE70021C4F2472101200860FFF708FC32
:101610000390FFE743F60000C4F20200006800F008
:1016200002010020B0EB510F0CD1FFE7FFF7F8FBF0
:101630000399401A032804D3FFE703208DF817000D
:1016400047E2E7E743F60001C4F20201086820F030
:10165000F800049A126940EAC200086021E0002103
:10166000C4F2472100200860FFF7DAFB0390FFE790
:1016700043F60000C4F20200006800F002010020FE
:10168000B0EB510F0CD0FFE7FFF7CAFB0399401AEC
:10169000032804D3FFE703208DF8170019E2E7E7DA
:1016A000FFE7FFE7FFE704980078000700284BD525
:1016B000FFE70498406918B3FFE740F68061C4F281
:1016C000472101200860FFF7ABFB0390FFE743F6DB
:1016D0007400C4F20200006800F002010020B0EBC8
:1016E000510F0CD1FFE7FFF79BFB0399401A03282A
:1016F00004D3FFE703208DF81700EAE1E7E722E0D3
:1017000040F68061C4F2472100200860FFF788FBA3
:101710000390FFE743F67400C4F20200006800F093
:1017200002010020B0EB510F0CD0FFE7FFF778FB70
:101730000399401A032804D3FFE703208DF817000C
:10174000C7E1E7E7FFE7FFE70498007840070028D4
:1017500040F1CE80FFE700208DF8070043F64000FF
:10176000C4F202000068C000002815D4FFE7FFE7BC
:101770000020009043F64000C4F20200016841F0EE
:1017800080510160006800F0805000900098FFE7F1
:1017900001208DF80700FFE747F20000C4F20000C7
:1017A0000068C005002822D4FFE747F20001C4F218
:1017B0000001086840F480700860FFF731FB039077
:1017C000FFE747F20000C4F200000068C0050028EF
:1017D0000CD4FFE7FFF724FB0399401A032804D336
:1017E000FFE703208DF8170073E1EAE7FFE7FFE763
:1017F00004988068012809D1FFE743F67001C4F21C
:101800000201086840F0010008601FE00498806849
:1018100005280DD1FFE743F67001C4F20201086804
:1018200040F004000860086840F0010008600CE027
:1018300043F67001C4F20201086820F0010008605C
:10184000086820F004000860FFE7FFE7FFE704985E
:101850008068F8B1FFE7FFF7E3FA0390FFE743F68C
:101860007000C4F20200006800F002010020B0EB3A
:10187000510F0ED1FFE7FFF7D3FA0399401A41F257
:101880008931884204D3FFE703208DF8170020E157
:10189000E5E71EE0FFF7C4FA0390FFE743F67000A8
:1018A000C4F20200006800F002010020B0EB510F0A
:1018B0000ED0FFE7FFF7B4FA0399401A41F28931DD
:1018C000884204D3FFE703208DF8170001E1E5E724
:1018D000FFE79DF80700012809D1FFE743F6400123
:1018E000C4F20201086820F080500860FFE7FFE7BB
:1018F00004988069002800F0E880FFE743F60800BC
:10190000C4F20200006800F00C00082800F0888093
:10191000FFE70498806902285FD1FFE76021C4F2E5
:10192000472100200860FFF77BFA0390FFE743F6AA
:101930000000C4F20200006800F000710020B0EB6B
:10194000516F0CD0FFE7FFF76BFA0399401A032899
:1019500004D3FFE703208DF81700BAE0E7E7049906
:10196000C869D1F820C04B6A8A6A40EA0C0040EA94
:101970008310D2034FF6FF739A43A2F580321043CF
:10198000CA6A40EA0260096B40EA017043F604014A
:10199000C4F2020108606021C4F2472101200860FE
:1019A000FFF73EFA0390FFE743F60000C4F202009F
:1019B000006800F000710020B0EB516F0CD1FFE720
:1019C000FFF72EFA0399401A032804D3FFE70320F8
:1019D0008DF817007DE0E7E721E06021C4F24721A0
:1019E00000200860FFF71CFA0390FFE743F60000B1
:1019F000C4F20200006800F000710020B0EB516FEB
:101A00000CD0FFE7FFF70CFA0399401A032804D320
:101A1000FFE703208DF817005BE0E7E7FFE753E0FF
:101A200004988069012804D1FFE701208DF8170090
:101A30004FE043F60400C4F20200006802900498EC
:101A4000806901283AD0FFE7029800F480000499E9
:101A5000C969884232D1FFE7029800F03F0004993B
:101A6000096A88422AD1FFE7029847F6C071084008
:101A70000499496AB0EB811F20D1FFE7029800F476
:101A800040300499896AC9034FF6FF729143A1F56A
:101A90008031884212D1FFE7029800F0706004990B
:101AA000C96AB0EB016F09D1FFE7029800F0E0408E
:101AB0000499096BB0EB017F04D0FFE701208DF89A
:101AC000170006E0FFE7FFE7FFE700208DF81700AB
:101AD000FFE79DF8170006B080BD000080B582B01A
:101AE0000190019800F036FB02B080BD80B582B055
:101AF0000090009820B9FFE701208DF807003EE034
:101B00000098806908B1FFE700E0FFE7009890F8CF
:101B10003D0040B9FFE70099002081F83C000098A3
:101B200000F032F8FFE70099242081F83D0000988A
:101B30000168C86820F40050C860009800F09EFB5F
:101B400000980168086920F49040086100980168D5
:101B5000486920F02A00486100980168C86840F48C
:101B60000050C860009900200864009A202182F883
:101B70003D10009A82F83E108DF80700FFE79DF8AF
:101B8000070002B080BD000080B58AB00990002037
:101B9000089007900690059004900998006844F218
:101BA0000041C4F20001884233D1FFE7FFE7002083
:101BB000039043F64000C4F20200016841F4003192
:101BC0000160006800F4003003900398FFE7FFE72E
:101BD0000020029043F63000C4F20200016841F098
:101BE00001010160006800F0010002900298FFE727
:101BF0000C200490022005900020069003200790FE
:101C0000072008900020C4F2020004A9FEF70AFF92
:101C10003EE00998006844F60001C4F200018842E1
:101C200035D1FFE7FFE70020019043F64000C4F202
:101C30000200016841F480210160006800F4802006
:101C400001900198FFE7FFE70020009043F6300085
:101C5000C4F20200016841F004010160006800F074
:101C6000040000900098FFE74FF4406004900220C9
:101C7000059000200690032007900720089040F66A
:101C80000000C4F2020004A9FEF7CCFEFFE7FFE764
:101C90000AB080BD80B58AB008900791ADF81A20CF
:101CA000059300200290089890F83E00202840F00C
:101CB0009B80FFE7079820B1FFE7BDF81A0020B925
:101CC000FFE701208DF8270092E0FFE7089890F8E1
:101CD0003C00012804D1FFE702208DF8270087E0AF
:101CE0000899012081F83C00FFE7FFE708990020F0
:101CF0000864089A222182F83E1008990863FFF7C9
:101D00008FF80290BDF81A0008998885BDF81A006E
:101D10000899C88508988068B0F5805F09D1FFE709
:101D20000898006928B9FFE70020049007980390FD
:101D300004E00798049000200390FFE7FFE708996C
:101D4000002081F83C00FFE7FFE70898C08D0028DD
:101D500042D0FFE70898029B05996A46116020214E
:101D6000002200F029FB20B1FFE703208DF82700B7
:101D70003EE0049858B9FFE70898006840686FF3A0
:101D80005F20039908800398023003901FE00898B1
:101D90008068B0F5805F08D0FFE70898806850B988
:101DA000FFE70898006930B9FFE7089800684068C5
:101DB0000499087007E008980068406800F07F0008
:101DC00004990870FFE7049801300490FFE7089930
:101DD000C88D0138C885B8E70899202081F83E00F1
:101DE00000208DF8270003E002208DF82700FFE790
:101DF0009DF827000AB080BD80B58AB00890079191
:101E0000ADF81A20059300200290089890F83D0044
:101E1000202840F09080FFE7079820B1FFE7BDF849
:101E20001A0020B9FFE701208DF8270087E0FFE7BF
:101E3000089890F83C00012804D1FFE702208DF8B3
:101E400027007CE00899012081F83C00FFE7FFE7CC
:101E50000899002008640899212081F83D00FEF7C8
:101E6000DFFF0290BDF81A0008998884BDF81A00B7
:101E70000899C88408988068B0F5805F09D1FFE7A9
:101E80000898006928B9FFE700200490079803909C
:101E900004E00798049000200390FFE7FFE708990B
:101EA000002081F83C00FFE7FFE70898C08C58B39A
:101EB000FFE70898029B05996A461160802100227D
:101EC00000F07AFA20B1FFE703208DF8270036E012
:101ED000049858B9FFE7039800886FF35F200899CA
:101EE0000968486003980230039008E0049800787D
:101EF000089909684860049801300490FFE7089940
:101F0000C88C0138C884D0E70898029B05996A46B6
:101F100011604021002200F04FFA20B1FFE70320BA
:101F20008DF827000BE00899202081F83D00002063
:101F30008DF8270003E002208DF82700FFE79DF8C9
:101F400027000AB080BD0000FFE7FEE780B540F241
:101F50004010C2F2000043F20001C4F2020101602D
:101F6000FEF762FC18B1FFE7FEF79EFAFFE780BDBF
:101F700080B58EB000200D900C900B900A900990C7
:101F8000FFE70020089043F63000C4F20200016829
:101F900041F004010160006800F004000890089816
:101FA000FFE7FFE70020079043F63000C4F202008D
:101FB000016841F080010160006800F08000079036
:101FC0000798FFE7FFE70020069043F63000C4F2D1
:101FD0000200016841F001010160006800F00100A9
:101FE00006900698FFE7FFE70020059043F63000D3
:101FF000C4F20200016841F002010160006800F0D3
:10200000020005900598FFE70020C4F2020003904B
:102010002021019100220292FEF7EAFE02984FF47D
:10202000005109914FF404110A910B9040F6000001
:10203000C4F2020009A90491FEF7F4FC019B029A84
:1020400003980499099301230A930B920C92FEF7CB
:10205000E9FC0EB080BD000080B582B040F24810AF
:10206000C2F20000019044F20041C4F2000101609C
:102070004FF4E131416000218160C16001610C22B7
:1020800042618161C161FFF731FD18B1FFE7FEF7E1
:102090000BFAFFE702B080BD80B582B040F28C1031
:1020A000C2F20000019044F60001C4F20001016098
:1020B0004FF4E131416000218160C16001610C2277
:1020C00042618161C161FFF711FD18B1FFE7FEF7C1
:1020D000EBF9FFE702B080BDFFE7FEE7FFE7FEE7B1
:1020E00088B0079006910592079800F007000490C9
:1020F0000498C0F10700052803D3FFE704200190EE
:1021000004E00498C0F107000190FFE701980390F4
:1021100004980430062803D8FFE70020009003E06D
:10212000049803380090FFE70098029006980399FE
:10213000012202FA01F101390840029B98400599F9
:102140009A40013A1140084308B0704770470000B8
:102150007047000080B582B0009000980138B0F15F
:10216000807F03D3FFE70120019019E00098013838
:102170004EF21401CEF2000108604FF0FF300F2143
:1021800000F08EF94EF21801CEF200010020086036
:102190004EF21002CEF20002072111600190FFE71B
:1021A000019802B080BD000080B5FEF73FFE80BD03
:1021B00080B594B007A83421FEF70EF900200690F0
:1021C0000590049003900290FFE70020019043F6F1
:1021D0004000C4F20200016841F0805101600068D3
:1021E00000F0805001900198FFE7FFE70020009089
:1021F00047F20000C4F200000168012262F38F314F
:102200000160006800F4404000900098FFE7022061
:10221000079001210A9110210B910D9000220E923E
:102220000F914FF4A8711091042111911290139005
:1022300007A8FFF7BFF818B1FFE7FEF735F9FFE78A
:102240000F20029002210391002004904FF480524D
:102250000592069002A8FEF799FE18B1FFE7FEF777
:1022600023F9FFE714B080BD4EF68851CEF200018D
:10227000086840F4700008607047000080B586B0C0
:10228000059005980068006920F44050059A11688F
:10229000D26810430861059988680B694A69C96961
:1022A000184310430843049005980068C06849F239
:1022B0000C6188430499084305990968C86005982A
:1022C0000068406920F44070059A116892691043D3
:1022D00048610598006841F20001C4F2010188429A
:1022E00009D0FFE70598006841F20041C4F20101FE
:1022F000884204D1FFE7FEF793FF039003E0FEF767
:102300007DFF0390FFE70598C069B0F5004F29D124
:10231000FFE703981921A0FB0101059A13680293B6
:1023200053685A00DB0FFDF7BDFF0299864648F25D
:102330001F53C5F2EB13AEFB0320420910014FF00F
:10234000640C02FB1CEC322202EBCC02A2FB033237
:10235000F82303EA521300EB4300C2F34212104485
:10236000886026E003981921A0FB0101059A1368F3
:10237000019353689A009B0FFDF794FF01998446DF
:1023800048F21F52C5F2EB12ACFB02304309642045
:1023900003FB10CC322000EB0C10A0FB0202F0205B
:1023A00000EA521000EB0310C2F34312104488609D
:1023B000FFE706B080BD000080B588B0DDF828C01A
:1023C000069005918DF813200393FFE706980068A7
:1023D000006805990840401AB0FA80F040099DF85D
:1023E0001310884249D1FFE70A980130002843D0F2
:1023F000FFE70A9840B1FFE7FEF712FD0399401A84
:102400000A99884237D9FFE7FFE7FFE70698006897
:1024100050E8030F20F4D0700290FFE7029906986D
:10242000026842E803100028F0D1FFE7FFE7FFE76A
:10243000FFE70698006850E8050F20F001000190C2
:10244000FFE701990698026842E805100028F0D1DC
:10245000FFE7FFE70699202081F83D00069981F803
:102460003E00FFE70699002081F83C00FFE70320CB
:102470008DF81F0005E0FFE7A8E700208DF81F009A
:10248000FFE79DF81F0008B080BD0000FFE7FEE7F2
:102490004EF60C50CEF200000068C0F302207047E8
:1024A00082B08DF8070000919DF9070000280AD43A
:1024B000FFE7009800019DF907104EF20042CEF2AE
:1024C000000288540BE0009800019DF8071001F00D
:1024D0000F014EF61452CEF200028854FFE702B00C
:1024E0007047000083B00290029800F0070000904F
:1024F0004EF60C51CEF200010868019001984FF69B
:10250000FF02104001900198009A40EA0220002248
:10251000C0F2FA52104301900198086003B070476E
:1025200081B0009001B0704781B0009001B0704759
:1025300080B588B0079000208DF81B0042F6FC6043
:10254000C0F6000000F0CAFB40F27800C2F20000C2
:102550000178013105910599014451F8041C049159
:1025600005990439049A00F0D5FAC8BBFFE742F692
:102570005A60C0F6000000F0B1FB07980078012116
:10258000039100F0F7F907988178C27842F69D60D0
:10259000C0F6000000F0A2FB039A0020C4F2020083
:1025A000029020210191FEF723FC07998878C978D1
:1025B00000F0ECFA0199024602988DF81B200022E7
:1025C000FEF716FC9DF81B1043F29B00C0F60000BE
:1025D00000F084FB03990DF11B0000F089FA08E07C
:1025E00042F63B60C0F6000000F078FB00F0DCF93A
:1025F000FFE708B080BD000080B586B005900020E0
:10260000ADF8120042F6D160C0F6000000F066FBA3
:1026100040F27800C2F20000017801310391039981
:10262000014451F8041C029103990439029A00F004
:1026300071FAF8B9FFE742F65A60C0F6000000F000
:102640004DFB059800780221019100F093F900F00C
:1026500009FBADF81200BDF8122042F67C60C0F60E
:102660000000114600F03AFB01990DF1120000F054
:102670003FFA08E042F63B60C0F6000000F02EFB97
:1026800000F092F9FFE706B080BD000080B584B08D
:10269000039042F67E70C0F6000000F01FFB40F28F
:1026A0007800C2F2000001780131029102990144E0
:1026B00051F8041C019102990439019A00F02AFA98
:1026C000A0B9FFE742F65A60C0F6000000F006FB32
:1026D000039800780821009100F04CF9009940F22D
:1026E0000400C2F2000000F003FA08E042F63B608A
:1026F000C0F6000000F0F2FA00F056F9FFE704B06F
:1027000080BD000080B586B0059000208DF81300D4
:1027100042F65370C0F6000000F0E0FA40F2780094
:10272000C2F200000178013103910399014451F88C
:10273000041C029103990439029A00F0EBF9F8B9EC
:10274000FFE742F65A60C0F6000000F0C7FA0598AD
:1027500000780121019100F00DF900F071FA8DF877
:1027600013009DF8132043F2E000C0F6000011466C
:1027700000F0B4FA01990DF1130000F0B9F908E086
:1027800042F63B60C0F6000000F0A8FA00F00CF939
:10279000FFE706B080BD000080B586B0059042F628
:1027A000AA70C0F6000000F099FA05980078013090
:1027B000039005980399084450F8040C029005987A
:1027C00003990439029A00F0A5F9F8B9FFE742F637
:1027D0005A60C0F6000000F081FA059800780121E7
:1027E000019100F0C7F800F029FA8DF813009DF868
:1027F000132043F2C200C0F60000114600F06EFA4A
:1028000001990DF1130000F073F908E042F63B6006
:10281000C0F6000000F062FA00F0C6F8FFE706B06C
:1028200080BD000080B586B00590002004908DF832
:102830000F0001208DF80E0042F62C70C0F600004B
:1028400000F04CFA40F27800C2F200000178013149
:1028500002910299014451F8041C01910299043932
:10286000019A00F057F9D8BBFFE742F65A60C0F66C
:10287000000000F033FA05980078012100F07AF8A2
:102880000598D0F802000490049943F28000C0F645
:10289000000000F023FA049800F024FA98B9FFE74A
:1028A0000DF10F00012100F023F90498013004908C
:1028B0000498009042F6DD50C0F6000000F00EFAD9
:1028C000009880470BE042F6BC50C0F6000000F0D4
:1028D00005FA0DF10E00012100F00AF9FFE708E00A
:1028E00042F63B60C0F6000000F0F8F900F05CF83A
:1028F000FFE706B080BD000081B0009001B07047D6
:1029000081B0009001B0704781B0009001B0704775
:1029100081B0009001B0704780B584B043F20D00E3
:10292000C0F6000000F0DAF948F20000C0F600003E
:1029300000680190019943F26300C0F6000000F0C6
:10294000CDF901980390039880F3088848F20400B9
:10295000C0F600000068009000980290029943F2CF
:102960003700C0F6000000F0B9F90298804704B0C3
:1029700080BD000080B582B08DF807008DF806108C
:10298000A5208DF804009DF806008DF8050040F2A2
:102990004810C2F2000001A902224FF0FF33FFF7F6
:1029A0002BFA02B080BD000080B582B07F208DF888
:1029B000070040F24810C2F200000DF107010122A9
:1029C0004FF0FF33FFF718FA02B080BD80B586B034
:1029D00000208DF81700FFE740F27800C2F20000F7
:1029E0000390C821FDF7D6FC039940F24810C2F2CB
:1029F0000000029001224FF0FF330193FFF74AF9E4
:102A0000019B039902980A788DF817209DF81720EA
:102A10000131FFF73FF9039840785138014604919E
:102A20000B285CD80499DFE801F0060D141B22295D
:102A300030373E454C5340F27800C2F20000FFF7B9
:102A4000ABFE53E040F27800C2F20000FFF71EFE3A
:102A50004CE040F27800C2F20000FFF7CDFD45E007
:102A600040F27800C2F20000FFF74CFE3EE040F278
:102A70007800C2F20000FFF7D5FE37E040F27800A0
:102A8000C2F20000FFF754FD30E040F27800C2F2DD
:102A90000000FFF735FF29E040F27800C2F20000A5
:102AA000FFF742FD22E040F27800C2F20000FFF79B
:102AB00023FF1BE040F27800C2F20000FFF728FF7E
:102AC00014E040F27800C2F20000FFF71DFF0DE0B5
:102AD00040F27800C2F20000FFF722FD06E042F665
:102AE0000460C0F6000000F0F9F8FFE774E70000AA
:102AF00080B582B0019000910199BDF8002040F2AC
:102B00004810C2F200004FF0FF33FFF775F902B032
:102B100080BD000080B588B0069005910492FF202A
:102B2000039000200290FFE702980599884212D294
:102B3000FFE706980299405C019040F24010C2F213
:102B4000000001A90122FDF749FE0390FFE702986A
:102B500001300290E8E740F24010C2F20000016844
:102B6000886840F00100886003980499884204D185
:102B7000FFE700208DF81F0003E001208DF81F0003
:102B8000FFE79DF81F0008B080BD000080B588B049
:102B90008DF81E008DF81D109DF81D00092804DB1E
:102BA000FFE704208DF81F0043E09DF81E00FF287A
:102BB00005D0FFE79DF81E00072836DCFFE79DF8EB
:102BC0001E00FF2803D1FFE7012002901AE09DF8C4
:102BD0001E00C0F108008DF802009DF81D009DF850
:102BE0000210884205DDFFE79DF802008DF81D0008
:102BF000FFE7002002909DF81E0004909DF81D0044
:102C00000590FFE701200390FDF7E0FE022006900B
:102C100002A801A9FDF748FE8DF80300FDF7CCFEE0
:102C20009DF803008DF81F0003E004208DF81F00BD
:102C3000FFE79DF81F0008B080BD0000102070471E
:102C400082B000208DF807004CF20000C1F6FF7042
:102C5000009000980068000A8DF807009DF80700B2
:102C600002B0704781B042F20000CEF2040000686A
:102C70006FF31F30ADF80200BDF8020001B07047DD
:102C800080B582B000200190FEF7DEF8FFF790FAE1
:102C9000FFF76EF9FFF7E0F9FFF7FEF9FFF756F9D6
:102CA00040F60000C4F202004FF40051FEF788F82D
:102CB00048B9FFE743F20010C0F6000000F00EF83C
:102CC000FFF784FE08E042F6D570C0F6000000F081
:102CD00005F8FFF721FEFFE7FFE7FEE781B0009070
:102CE00001B0704782B000900098B0F1005F0CD343
:102CF000FFE700984CF20001C2F20101884204D8BB
:102D0000FFE700208DF807003BE000984CF200013F
:102D1000C2F2010188420BD3FFE700980021C2F202
:102D20000201884204D8FFE700208DF8070028E060
:102D30000098B0F1006F0CD3FFE700984FF6FF71D9
:102D4000C0F60701884204D8FFE700208DF807008D
:102D500017E0009844F20001C4F2020188420CD34B
:102D6000FFE7009845F20001C4F20201884204D84E
:102D7000FFE700208DF8070003E001208DF8070031
:102D8000FFE79DF8070002B07047F1EE100A4FF61A
:102D9000FF71C0F2C03120EA010040F04070E1EE66
:102DA000100A704700000000000000000102030448
:102DB000060708090000000001020304424C5F44BA
:102DC000454255475F4D53473A474F20616464720F
:102DD00020696E76616C69642021200A00424C5F94
:102DE00044454255475F4D53473A206A756D7069B7
:102DF0006E6720746F20676F2061646472657373FF
:102E000021200A00424C5F44454255475F4D5347DD
:102E10003A496E76616C696420636F6D6D616E64B2
:102E200020636F64652072656365697665642066FA
:102E3000726F6D20686F7374200A00424C5F4445C6
:102E40004255475F4D53473A636865636B73756DD1
:102E5000206661696C2021210A00424C5F44454292
:102E600055475F4D53473A636865636B73756D20D3
:102E7000737563636573732021210A00424C5F44BC
:102E8000454255475F4D53473A4D435520696420AD
:102E90003A202564202523782021210A00424C5F16
:102EA00044454255475F4D53473A696E69746961BD
:102EB0006C5F736563746F72203A20256420206E06
:102EC0006F5F6F66736563746F72733A2025640A6F
:102ED00000424C5F44454255475F4D53473A626F4D
:102EE0006F746C6F616465725F68616E646C655F5E
:102EF0006765746369645F636D640A00424C5F4494
:102F0000454255475F4D53473A626F6F746C6F612E
:102F10006465725F68616E646C655F666C6173683E
:102F20005F65726173655F636D640A00424C5F4464
:102F3000454255475F4D53473A626F6F746C6F61FE
:102F40006465725F68616E646C655F676F5F636D17
:102F5000640A00424C5F44454255475F4D53473A2F
:102F6000626F6F746C6F616465725F68616E646CD0
:102F7000655F6765747264705F636D640A00424CDC
:102F80005F44454255475F4D53473A626F6F746CDB
:102F90006F616465725F68616E646C655F676574BC
:102FA00068656C705F636D640A00424C5F44454223
:102FB00055475F4D53473A626F6F746C6F6164653C
:102FC000725F68616E646C655F6765747665725F79
:102FD000636D640A00424C5F44454255475F4D5360
:102FE000473A427574746F6E2069736E6F74207007
:102FF000726573736564202E2E65786563757469D8
:103000006E672075736572206170700A00424C5FB4
:1030100044454255475F4D53473A626F6F746C6F3A
:10302000616465725F6A756D705F74705F757365FA
:10303000725F6170700A00424C5F44454255475FC1
:103040004D53473A20617070207265736574206833
:10305000616E646C65722061646472203A2025237D
:10306000780A00424C5F44454255475F4D53473A0A
:103070004D53502076616C75653A202523780A00FF
:10308000424C5F44454255475F4D53473A474F20B6
:10309000616464723A202523780A00424C5F4445FB
:1030A0004255475F4D53473A20666C61736820650F
:1030B00072617365207374617475733A2025237887
:1030C0000A00424C5F44454255475F4D53473A42E0
:1030D0004C5F564552203A202564202523780A006B
:1030E000424C5F44454255475F4D53473A52445026
:1030F000206C6576656C3A202564202523780A00CB
:10310000424C5F44454255475F4D53473A427574C0
:10311000746F6E2069732070726573736564202EFE
:103120002E20676F696E6720746F20424C206D6F90
:1031300064650A0D000000005831000800000020FE
:10314000180000000002000870310008180000207C
:10315000E00700001C0200080024F4005152535400
:103160005556575A010000001000000000000000F2
:04000005080001C529
:00000001FF
