:020000040800F2
:10800000E0060020658200083191000829910008EF
:108010002D91000811840008F19200080000000072
:10802000000000000000000000000000399100087E
:108030001584000800000000359100083D910008FB
:108040007F8200087F8200087F8200087F8200080C
:108050007F8200087F8200087F8200087F820008FC
:108060007F8200087F8200087F8200087F820008EC
:108070007F8200087F8200087F8200087F820008DC
:108080007F8200087F8200087F8200087F820008CC
:108090007F8200087F8200087F8200087F820008BC
:1080A0007F8200087F8200087F8200087F820008AC
:1080B0007F8200087F8200087F8200087F8200089C
:1080C0007F8200087F8200087F8200087F8200088C
:1080D0007F8200087F8200087F8200087F8200087C
:1080E000198400087F8200087F8200087F820008D0
:1080F0007F8200087F8200087F8200087F8200085C
:108100007F8200087F8200087F8200087F8200084B
:108110007F8200087F8200087F8200087F8200083B
:108120007F8200087F8200087F8200087F8200082B
:108130007F82000800000000000000007F8200082D
:108140007F8200087F8200087F8200087F8200080B
:108150007F8200087F8200087F8200087F820008FB
:108160007F8200087F8200087F8200087F820008EB
:108170007F8200087F8200087F82000800000000E4
:10818000000000007F8200080000000000000000E6
:108190007F82000800000000000000007F820008CD
:1081A0000000000000000000000000007F820008C6
:1081B0007F8200087F8200087F8200087F8200089B
:1081C0007F82000800F002F800F03CF80AA090E876
:1081D000000C82448344AAF10107DA4501D100F082
:1081E00031F8AFF2090EBAE80F0013F0010F18BF13
:1081F000FB1A43F001031847481200006812000000
:10820000103A24BF78C878C1FAD8520724BF30C8C2
:1082100030C144BF04680C60704700000023002494
:1082200000250026103A28BF78C1FBD8520728BF86
:1082300030C148BF0B6070471FB501F0E8F81FBDA3
:1082400010B510BD00F0A9F81146FFF7F5FF01F0D9
:1082500051F800F0C7F803B4FFF7F2FF03BC00F0D9
:10826000CFF800000948804709480047FEE7FEE7CD
:10827000FEE7FEE7FEE7FEE7FEE7FEE7FEE7FEE7D6
:1082800004480549054A064B70470000ED91000877
:10829000C5810008E0000020E0060020E002002088
:1082A000E002002053EA020C00F069802DE9F04B57
:1082B0004FF00006002B1FBFB3FA83F503FA05F455
:1082C00024FA05F65E4012BF1643B2FA82F502FAAE
:1082D00005F4C5F120051EBF22FA05FC44EA0C0492
:1082E000203556EA044C4FEA144418BF641C4FF082
:1082F00000084FF00009904271EB030C39D30029BC
:1083000019BFB1FA81F701FA07F6B0FA80F700FA5F
:1083100007F6C7F120071EBF20FA07FC46EA0C0645
:108320002037B6FBF4FCA7EB0507103F07F01F0B47
:10833000CBF120062CFA06F60CFA0BFB44BFB34631
:108340000026202FA4BF5E464FF0000B5BEA060C10
:1083500008BF4FF0010B19EB0B0948EB0608ABFB0C
:10836000027C06FB02CC0BFB03CCC01B71EB0C01A7
:10837000C1E70B46024641464846BDE8F08B13B5BF
:10838000084318BF4FF0FF300146AFF30080BDE84F
:108390001C407047704770477047754600F02CF8D6
:1083A000AE4605006946534620F00700854618B0E2
:1083B00020B5FFF765FFBDE820404FF000064FF005
:1083C00000074FF000084FF0000BAC46ACE8C009C6
:1083D000ACE8C009ACE8C009ACE8C00921F007016D
:1083E0008D46704710B50446AFF300802046BDE8C7
:1083F0001040FFF730BF00000048704730000020F9
:1084000001491820ABBEFEE72600020070470000BD
:10841000FEE700007047000010B540F29004C2F281
:10842000000420782021B0FA80F042090020C4F234
:10843000020000F0F7F82078B0FA80F041094FF41C
:1084400000502170BDE8104000F002B870470000F5
:1084500043F61441C4F201010A68024214BF0860E5
:108460007047FFF7F3BF00002DE9F04F82B000F135
:108470003E4241F6000502F1FF77C4F202050722F1
:108480004FEAB726A84208BF0622062E38BF4FEA99
:10849000B7224FF0010A002400274FF00008009295
:1084A00008E000BF023708F10108202F04F104049E
:1084B00000F0B4800E680AFA08F916EA090FF1D044
:1084C000D1F804A00AF0030BABF10106012E17D876
:1084D0000322866802FA07FECA6826EA0E06BA4038
:1084E000324382604268CAF3001522EA090205FAA3
:1084F00008F54FEA480C6FEA0E062A4342600BE08B
:108500000322BA40D643BBF1030FBC4604D1BC469C
:108510004FF0030B22E000BFC2688D68324005FABD
:108520000CF52A43BBF1020FC26017D16FF00302B2
:1085300002EA5802024404F01C030F25D2F820E09E
:1085400005FA03FA0D692EEA0A0E05FA03F343EA67
:108550000E031362D1F804A00AF0030B02680BFAB1
:108560000CF332401A431AF4403F4FF0010A026004
:1085700098D0002243F644030192C4F202031A6821
:1085800043F6004E42F480421A601A68C4F2010EAB
:1085900002F480420192019A28F003024FF6084C3F
:1085A0007244CFF6FF7C52F80C3004F00C060F2515
:1085B000B540AB43009D05FA06F6334342F80C3054
:1085C000DEF808204B6842EA090643F60C4CDD024F
:1085D00058BF22EA0906CEF80860C4F2010CDCF8A4
:1085E00000209D0242EA090658BF22EA0906CCF89B
:1085F0000060DEF804209D0342EA090658BF22EA23
:108600000906CEF80460DEF80020DB0342EA090622
:1086100058BF22EA0906CEF8006043E702B0BDE881
:10862000F08F0000002A08BF090481617047000034
:1086300040F2D800C2F200000068704740F200002B
:1086400040F2D801C2F20000C2F2000100780A68CC
:10865000104408607047000080B543F60040C4F243
:108660000200016841F400710160016841F4806119
:108670000160016841F480710160032000F086F818
:10868000002000F005F800F027F8002080BD000071
:1086900070B540F20006C2F2000640F208013278DE
:1086A000C2F200014FF47A730968B3FBF2F2044698
:1086B000B1FBF2F1084600F07BFB0F2C4FF00105F7
:1086C00008D838B94FF0FF3021460022002500F0CD
:1086D00031F87460284670BD82B0002043F6400136
:1086E0000190C4F202014A6842F480424A604A683A
:1086F00002F480420192019A0090086840F0805094
:108700000860086800F0805000900098072002B0D0
:1087100000F03CB8002848BF704700F01F0101225C
:1087200002FA01F14EF200124009CEF2000242F8C4
:108730002010704710B54EF60C5CCEF2000CDCF841
:108740000030C3F3022E8EF00704042C28BF04244B
:10875000BEF103034FF0FF3E0EFA04F438BF0023CE
:10876000A14399400EFA03F39A43114300F00F021C
:10877000043A624409010C3200F16043B0F1FF3F5A
:10878000C8BF03F56442117010BD00004EF60C51D5
:10879000CEF200010A684FF6FF031A4060F30A2286
:1087A00042F0806040F0FD70086070472DE9F041B4
:1087B000002800F08B8043F60808C4F20208044643
:1087C000D8F8F8030D4600F00F00884207D288F869
:1087D000F853D8F8F80300F00F00A84276D12068CB
:1087E000810717D5410705D5D8F8001041F4E051AD
:1087F000C8F80010010705D5D8F8001041F4604111
:10880000C8F80010D8F80010A26821F0F001114358
:10881000C8F80010C0073FD1D8F8F80300F00F00E7
:10882000A84207D988F8F853D8F8F80300F00F00E9
:10883000A8424BD12068410707D5D8F80010E2685C
:1088400021F4E0511143C8F80010000708D5D8F80A
:108850000000216920F4604040EAC100C8F800002F
:1088600000F07CF8D8F8001049F22842C1F3031157
:10887000C0F60002515C40F2080220FA01F140F219
:108880000400C2F200000068C2F200021160FFF7AB
:10889000FFFE0020BDE8F0816068811E022907D23A
:1088A00058F8081C89015CBF0120BDE8F08111E087
:1088B000012807D158F8081C89035CBF0120BDE8D6
:1088C000F08107E058F8081C890703D40120BDE8AF
:1088D000F08100BFD8F8001021F003010843C8F868
:1088E0000000FFF7A5FE064641F28837D8F80000E1
:1088F000616800F00C00B0EB810F8DD0FFF798FE9F
:10890000801BB842F2D90320BDE8F08140F2080094
:1089100043F60801C2F20000C4F2020100680968CF
:1089200049F23842C1F38221C0F60002515CC840CE
:108930007047000040F2080043F60801C2F2000050
:10894000C4F202010068096849F23842C1F34231B9
:10895000C0F60002515CC8407047000010B543F6F5
:108960000404C4F202046068C0F3810142F20040D2
:10897000C0F2F400DFE801F04402081841F20020E0
:10898000C0F27A0010BD00BF216801F03F022168EB
:1089900023684902C3F3881116D4A1FB0001002308
:1089A000FFF780FC17E000BF216801F03F0221685B
:1089B00023684902C3F3881116D4A1FB00010023E8
:1089C000FFF770FC17E000BF41F20020C0F27A0010
:1089D0004843B0FBF2F021680222C1F3014102EBEF
:1089E0004101B0FBF1F010BD41F20020C0F27A006D
:1089F0004843B0FBF2F02168C1F30271B0FBF1F023
:108A000010BD00002DE9F04182B0002800F09680F2
:108A10000446007843F60006C007C4F202062BD0D5
:108A2000B06800F00C00042820D0B06800F00C0002
:108A3000082802D17068400218D4B06800F00C0019
:108A40000C2802D17068400210D46068B0F5803FF5
:108A500007D0B0F5A02F40F03B81306840F4802073
:108A60003060306840F4803030603BE13068800333
:108A700002D56068002861D02078800722D5B068D0
:108A800010F00C0F11D0B06800F00C00082802D1D3
:108A90007068400209D5B06800F00C000C2840F066
:108AA0009F807068400200F19B803068800702D58B
:108AB000E068012842D13068216920F0F80040EADE
:108AC000C1003060207800073CD42078400751D4A2
:108AD000A5698DB3B06800F00C00082840F0A880AC
:108AE000012D2BD07068E16900F480028A4225D103
:108AF000216A00F03F028A4220D147F6C071626AC3
:108B00000140B1EB821F19D1A26A0023CFF6FF7397
:108B100003EBC23200F440316FF30F0291420DD1EA
:108B2000E16A00F07062B2EB016F07D1216B00F0D7
:108B3000E040B0EB017F01D1002035E1012002B01F
:108B4000BDE8F0816069002840F20000C4F24720CF
:108B50005ED00121C0F8801EFFF76AFD054600BF08
:108B6000706F8007B1D4FFF763FD401B0228F7D96F
:108B7000C5E000BF306C10F080580AD10020019091
:108B8000306C40F080503064306C00F080500190C8
:108B9000019847F20007C4F200073868C00511D4F5
:108BA000386840F480703860FFF742FD054600BF2A
:108BB0003868C00506D4FFF73BFD401B0228F7D9F3
:108BC0009DE000BFA068012805D0052852D1306F74
:108BD00040F004003067306F40F00100306753E030
:108BE000E068002860D00020C4F247200121016025
:108BF000FFF71EFD054600BF306880073FF55BAFFD
:108C0000FFF716FD401B02284FF00300F4D9CBE01C
:108C10000021C0F8801EFFF70BFD0546706F80072E
:108C20007FF553AFFFF704FD401B0228F6D966E03D
:108C30000027C4F2472700203866FFF7F9FC022D11
:108C400005460BD1306880015ED5FFF7F1FC401B73
:108C500002284FF00300F5D9A6E000BF306880017C
:108C60007FF56AAFFFF7E4FC401B02284FF00300DA
:108C7000F4D999E0316F002821F001013167316F9B
:108C800021F00401316765D0FFF7D2FC054641F2BF
:108C9000883700BF306F80076ED4FFF7C9FC401BD8
:108CA000B842F7D92BE000BF0020C4F247200021D2
:108CB0000160FFF7BDFC0546306880077FF502AF15
:108CC000FFF7B6FC401B02284FF00300F4D96BE01D
:108CD0003168002821F480313160316821F480212D
:108CE000316053D0FFF7A4FC054600BF3068800315
:108CF0003FF5C2AEFFF79CFC401B6428F6D9032069
:108D000002B0BDE8F08100BF04F11C052FCD246B3B
:108D100008430021CFF6FF7140EA821001EBC33116
:108D20006FF30F0140EA0560084340EA0470706089
:108D300001203866FFF77CFC044600BF30688001E4
:108D40003FF5FAAEFFF774FC001B02284FF003005A
:108D5000F4D929E0FFF76CFC054641F2883700BFE3
:108D6000306F800708D5FFF763FC401BB8424FF017
:108D70000300F5D918E000BFB8F1000F7FF4A8AEEA
:108D8000306C20F080503064A2E600BFFFF750FC4A
:108D90000546306880037FF56FAEFFF749FC401B46
:108DA00064284FF00300F4D902B0BDE8F081000060
:108DB000411E0020B0EB116F1CBF012070474EF226
:108DC0001002CEF2000251604EF62351CEF20001A5
:108DD000F0230B700721906011607047002804BFDA
:108DE0000120704710B5044690F83D0028B90020D6
:108DF00084F83C00204600F021F8242084F83D004F
:108E00002068C16821F40051C160204600F0FEF9DD
:108E10002068016921F490410161416921F02A0132
:108E20004161C16841F40051C160002020212064EB
:108E300084F83D1084F83E1010BD000080B586B067
:108E4000016844F20040C4F20000814202D006B042
:108E500080BD00BF002143F630020191C4F202023E
:108E6000136900F5DE3043F400331361136903F432
:108E700000330193019B0191136843F001031360D8
:108E8000126802F001020192019A0C220192022260
:108E9000CDE90221032104910721059101A9FFF7E2
:108EA000E3FA06B080BD00002DE9F04381B004462E
:108EB00090F83D0020280DD10F4600294FF0010009
:108EC00000F0DD801646002A00F0D98094F83C00BE
:108ED000012803D1022001B0BDE8F083012084F80D
:108EE0003C004FF0000921201D46C4F8409084F852
:108EF0003D00FFF79DFBA684E684A1680646B1F518
:108F0000805F07D1206900281CBF38464F46B8460D
:108F1000074601E04FF0000884F83C90E18C20689F
:108F2000002900F08B8005F101090AE047B317F82A
:108F3000011B4160E18C0139E184E18C002900F0E2
:108F40007D8001680906F1D4B9F1000F0AD0EDB1B6
:108F5000FFF76EFB801BA84218D82068016809063D
:108F6000F6D5E3E701680906E0D4016809065CBFAD
:108F700001685FEA0161D9D401680906F2D5D5E735
:108F800038F8021B00276FF35F21D2E7206850E812
:108F9000030F216820F4D07041E80302BAB32068BF
:108FA00050E8030F216820F4D07041E8030272B347
:108FB000206850E8030F216820F4D07041E80302D4
:108FC0002AB3206850E8030F216820F4D07041E8EC
:108FD0000302002ADAD11AE0206850E8050F216860
:108FE00020F0010041E80502DAB1206850E8050FE1
:108FF000216820F0010041E8050292B1206850E8A4
:10900000050F216820F0010041E805024AB12068FF
:1090100050E8050F216820F0010041E80502002A10
:10902000DAD1202084F83D0084F83E00002084F846
:109030003C00032001B0BDE8F08300BF0168490691
:1090400019D4FDB1691C0DD10168490613D401681A
:1090500049065CBF01685FEA41610CD401684906BA
:10906000F2D508E0FFF7E4FA801BA8420AD820688E
:1090700000684006F6D5202084F83D00002001B0AD
:10908000BDE8F083206850E8030F216820F4D07019
:1090900041E80302E2B3206850E8030F216820F49E
:1090A000D07041E803029AB3206850E8030F2168AA
:1090B00020F4D07041E8030252B3206850E8030F57
:1090C000216820F4D07041E80302002ADAD11FE0C1
:1090D000206850E8050F216820F0010041E80502F2
:1090E000002A9ED0206850E8050F216820F001007A
:1090F00041E80502002A3FF494AF206850E8050FCC
:10910000216820F0010041E80502002A3FF489AF00
:10911000206850E8050F216820F0010041E80502B1
:10912000002AD5D17DE70000FEE70000FEE7000041
:10913000FEE700007047000070470000FFF77EBAAE
:10914000B0B594B0002443F640000C94CDE90A4435
:10915000CDE908440694CDE90444CDE902440194E4
:10916000C4F202000168012241F0805101600068F0
:10917000022500F080500190019847F20000019410
:10918000C4F20000016862F38F310160006800F4EE
:1091900040400190019810200B900F904FF4A87060
:1091A00010900420CDE9110507A807950A92CDE992
:1091B0000D541395FFF726FC20B1EFF3108072B623
:1091C000FEE700BF0F20CDE902054FF48050CDE946
:1091D000050402A802210494FFF7E8FA20B1EFF396
:1091E000108072B6FEE700BF14B0B0BD4EF68850D6
:1091F000CEF20000016841F47001016048F2000104
:10920000C0F6000140F8801C7047000010B504460D
:109210000068D4E902C22369016921F44051114375
:109220000161626943EA0C01E3691143C2681943B1
:1092300049F20C639A431143C1604169A26921F468
:10924000407141F20043114340F48062C4F20103D3
:109250009A42416102D1FFF76DFB01E0FFF756FB37
:10926000E16963681922B1F5004FA0FB02011FD12B
:109270005A00DB0FFFF716F848F21F51C5F2EB1149
:10928000A0FB01235A096FF0630302FB03003223A2
:1092900003EBC000A0FB01014FF4F87000EA1110CD
:1092A00000EB0210C1F3421108442168886010BD30
:1092B0009A009B0FFEF7F6FF48F21F51C5F2EB1123
:1092C000A0FB01235A096FF0630302FB0300322362
:1092D00003EB0010A0FB0101F02000EA511000EBAD
:1092E0000210C1F3431108442168886010BD0000DA
:1092F000FEE7000086B0FFF7AFF9FFF721FF002679
:1093000043F63000CDE904660096C4F2020001681D
:10931000002441F0040101600168C4F2020401F07C
:1093200004010091009900960168002241F080013B
:1093300001600168202701F08001009100990096EA
:10934000016841F001010160016801F00101009133
:1093500000990096016841F0020101600068202137
:1093600000F00200009000982046FFF75BF94FF4F0
:10937000005001904FF4041001ADCDE9020604F550
:1093800000602946FFF770F80120CDE9020620466B
:10939000294601970496FFF767F82820002100224C
:1093A000FFF7C8F92820FFF7B5F940F29400A4F5BB
:1093B000DE31C2F200000C234FF4E13280E84600B7
:1093C000C0E90366C0E90536C661FFF707FD28B1AD
:1093D000EFF3108072B600BFFEE700BF40F29404C6
:1093E00040F20C05C2F20004C2F2000520462946F4
:1093F0001F224FF0FF33FFF757FDFFF719F900F574
:109400007A7600BFFFF714F9B042FBD9EEE7F1EE30
:10941000100A4FF6FF71C0F2C03120EA010040F09F
:109420004070E1EE100A70470000000000000000EC
:1094300001020304060708090000000001020304FA
:109440006094000800000020300000000082000846
:109450009094000830000020B00600001C82000834
:1094600001000000100000000024F40048656C6C4E
:109470006F2046726F6D2075736572204170706C3D
:1094800069636174696F6E200D0A000000000000BE
:04000005080081C5A9
:00000001FF
